{
	"PaymentProcessor.sol": {
		"PaymentProcessor": {
			"abi": [
				{
					"inputs": [
						{
							"internalType": "address",
							"name": "_usdtContract",
							"type": "address"
						},
						{
							"internalType": "address",
							"name": "_implementation",
							"type": "address"
						}
					],
					"stateMutability": "nonpayable",
					"type": "constructor"
				},
				{
					"inputs": [],
					"name": "FailedDeployment",
					"type": "error"
				},
				{
					"inputs": [
						{
							"internalType": "uint256",
							"name": "balance",
							"type": "uint256"
						},
						{
							"internalType": "uint256",
							"name": "needed",
							"type": "uint256"
						}
					],
					"name": "InsufficientBalance",
					"type": "error"
				},
				{
					"anonymous": false,
					"inputs": [
						{
							"indexed": true,
							"internalType": "address",
							"name": "proxy",
							"type": "address"
						},
						{
							"indexed": true,
							"internalType": "bytes32",
							"name": "cartUuid",
							"type": "bytes32"
						},
						{
							"indexed": false,
							"internalType": "uint256",
							"name": "amount",
							"type": "uint256"
						}
					],
					"name": "PaymentReceived",
					"type": "event"
				},
				{
					"anonymous": false,
					"inputs": [
						{
							"indexed": true,
							"internalType": "address",
							"name": "proxy",
							"type": "address"
						},
						{
							"indexed": true,
							"internalType": "bytes32",
							"name": "cartUuid",
							"type": "bytes32"
						}
					],
					"name": "ProxyCreated",
					"type": "event"
				},
				{
					"inputs": [
						{
							"internalType": "bytes32",
							"name": "cartUuid",
							"type": "bytes32"
						},
						{
							"internalType": "uint256",
							"name": "payAmount",
							"type": "uint256"
						},
						{
							"internalType": "uint256",
							"name": "expirationDate",
							"type": "uint256"
						}
					],
					"name": "createPaymentProxy",
					"outputs": [
						{
							"internalType": "address",
							"name": "",
							"type": "address"
						}
					],
					"stateMutability": "nonpayable",
					"type": "function"
				},
				{
					"inputs": [],
					"name": "implementation",
					"outputs": [
						{
							"internalType": "address",
							"name": "",
							"type": "address"
						}
					],
					"stateMutability": "view",
					"type": "function"
				},
				{
					"inputs": [
						{
							"internalType": "bytes32",
							"name": "cartUuid",
							"type": "bytes32"
						}
					],
					"name": "markPaymentProcessed",
					"outputs": [],
					"stateMutability": "nonpayable",
					"type": "function"
				},
				{
					"inputs": [],
					"name": "owner",
					"outputs": [
						{
							"internalType": "address",
							"name": "",
							"type": "address"
						}
					],
					"stateMutability": "view",
					"type": "function"
				},
				{
					"inputs": [
						{
							"internalType": "bytes32",
							"name": "",
							"type": "bytes32"
						}
					],
					"name": "payments",
					"outputs": [
						{
							"internalType": "address",
							"name": "proxyAddress",
							"type": "address"
						},
						{
							"internalType": "uint256",
							"name": "payAmount",
							"type": "uint256"
						},
						{
							"internalType": "uint256",
							"name": "expirationDate",
							"type": "uint256"
						},
						{
							"internalType": "bool",
							"name": "isProcessed",
							"type": "bool"
						}
					],
					"stateMutability": "view",
					"type": "function"
				},
				{
					"inputs": [],
					"name": "usdtContract",
					"outputs": [
						{
							"internalType": "address",
							"name": "",
							"type": "address"
						}
					],
					"stateMutability": "view",
					"type": "function"
				},
				{
					"inputs": [
						{
							"internalType": "uint256",
							"name": "amount",
							"type": "uint256"
						}
					],
					"name": "withdrawUSDT",
					"outputs": [],
					"stateMutability": "nonpayable",
					"type": "function"
				}
			],
			"devdoc": {
				"errors": {
					"FailedDeployment()": [
						{
							"details": "The deployment failed."
						}
					],
					"InsufficientBalance(uint256,uint256)": [
						{
							"details": "The ETH balance of the account is not enough to perform the operation."
						}
					]
				},
				"kind": "dev",
				"methods": {},
				"version": 1
			},
			"evm": {
				"assembly": "    /* \"PaymentProcessor.sol\":173:3284  contract PaymentProcessor {... */\n  mstore(0x40, 0x80)\n    /* \"PaymentProcessor.sol\":818:997  constructor(address _usdtContract, address _implementation) {... */\n  callvalue\n  dup1\n  iszero\n  tag_1\n  jumpi\n  0x00\n  dup1\n  revert\ntag_1:\n  pop\n  mload(0x40)\n  sub(codesize, bytecodeSize)\n  dup1\n  bytecodeSize\n  dup4\n  codecopy\n  dup2\n  dup2\n  add\n  0x40\n  mstore\n  dup2\n  add\n  swap1\n  tag_2\n  swap2\n  swap1\n  tag_3\n  jump\t// in\ntag_2:\n    /* \"PaymentProcessor.sol\":897:907  msg.sender */\n  caller\n    /* \"PaymentProcessor.sol\":889:894  owner */\n  0x00\n  dup1\n    /* \"PaymentProcessor.sol\":889:907  owner = msg.sender */\n  0x0100\n  exp\n  dup2\n  sload\n  dup2\n  0xffffffffffffffffffffffffffffffffffffffff\n  mul\n  not\n  and\n  swap1\n  dup4\n  0xffffffffffffffffffffffffffffffffffffffff\n  and\n  mul\n  or\n  swap1\n  sstore\n  pop\n    /* \"PaymentProcessor.sol\":933:946  _usdtContract */\n  dup2\n    /* \"PaymentProcessor.sol\":918:930  usdtContract */\n  0x01\n  0x00\n    /* \"PaymentProcessor.sol\":918:946  usdtContract = _usdtContract */\n  0x0100\n  exp\n  dup2\n  sload\n  dup2\n  0xffffffffffffffffffffffffffffffffffffffff\n  mul\n  not\n  and\n  swap1\n  dup4\n  0xffffffffffffffffffffffffffffffffffffffff\n  and\n  mul\n  or\n  swap1\n  sstore\n  pop\n    /* \"PaymentProcessor.sol\":974:989  _implementation */\n  dup1\n    /* \"PaymentProcessor.sol\":957:971  implementation */\n  0x02\n  0x00\n    /* \"PaymentProcessor.sol\":957:989  implementation = _implementation */\n  0x0100\n  exp\n  dup2\n  sload\n  dup2\n  0xffffffffffffffffffffffffffffffffffffffff\n  mul\n  not\n  and\n  swap1\n  dup4\n  0xffffffffffffffffffffffffffffffffffffffff\n  and\n  mul\n  or\n  swap1\n  sstore\n  pop\n    /* \"PaymentProcessor.sol\":818:997  constructor(address _usdtContract, address _implementation) {... */\n  pop\n  pop\n    /* \"PaymentProcessor.sol\":173:3284  contract PaymentProcessor {... */\n  jump(tag_6)\n    /* \"#utility.yul\":88:205   */\ntag_8:\n    /* \"#utility.yul\":197:198   */\n  0x00\n    /* \"#utility.yul\":194:195   */\n  dup1\n    /* \"#utility.yul\":187:199   */\n  revert\n    /* \"#utility.yul\":334:460   */\ntag_10:\n    /* \"#utility.yul\":371:378   */\n  0x00\n    /* \"#utility.yul\":411:453   */\n  0xffffffffffffffffffffffffffffffffffffffff\n    /* \"#utility.yul\":404:409   */\n  dup3\n    /* \"#utility.yul\":400:454   */\n  and\n    /* \"#utility.yul\":389:454   */\n  swap1\n  pop\n    /* \"#utility.yul\":334:460   */\n  swap2\n  swap1\n  pop\n  jump\t// out\n    /* \"#utility.yul\":466:562   */\ntag_11:\n    /* \"#utility.yul\":503:510   */\n  0x00\n    /* \"#utility.yul\":532:556   */\n  tag_20\n    /* \"#utility.yul\":550:555   */\n  dup3\n    /* \"#utility.yul\":532:556   */\n  tag_10\n  jump\t// in\ntag_20:\n    /* \"#utility.yul\":521:556   */\n  swap1\n  pop\n    /* \"#utility.yul\":466:562   */\n  swap2\n  swap1\n  pop\n  jump\t// out\n    /* \"#utility.yul\":568:690   */\ntag_12:\n    /* \"#utility.yul\":641:665   */\n  tag_22\n    /* \"#utility.yul\":659:664   */\n  dup2\n    /* \"#utility.yul\":641:665   */\n  tag_11\n  jump\t// in\ntag_22:\n    /* \"#utility.yul\":634:639   */\n  dup2\n    /* \"#utility.yul\":631:666   */\n  eq\n    /* \"#utility.yul\":621:684   */\n  tag_23\n  jumpi\n    /* \"#utility.yul\":680:681   */\n  0x00\n    /* \"#utility.yul\":677:678   */\n  dup1\n    /* \"#utility.yul\":670:682   */\n  revert\n    /* \"#utility.yul\":621:684   */\ntag_23:\n    /* \"#utility.yul\":568:690   */\n  pop\n  jump\t// out\n    /* \"#utility.yul\":696:839   */\ntag_13:\n    /* \"#utility.yul\":753:758   */\n  0x00\n    /* \"#utility.yul\":784:790   */\n  dup2\n    /* \"#utility.yul\":778:791   */\n  mload\n    /* \"#utility.yul\":769:791   */\n  swap1\n  pop\n    /* \"#utility.yul\":800:833   */\n  tag_25\n    /* \"#utility.yul\":827:832   */\n  dup2\n    /* \"#utility.yul\":800:833   */\n  tag_12\n  jump\t// in\ntag_25:\n    /* \"#utility.yul\":696:839   */\n  swap3\n  swap2\n  pop\n  pop\n  jump\t// out\n    /* \"#utility.yul\":845:1352   */\ntag_3:\n    /* \"#utility.yul\":924:930   */\n  0x00\n    /* \"#utility.yul\":932:938   */\n  dup1\n    /* \"#utility.yul\":981:983   */\n  0x40\n    /* \"#utility.yul\":969:978   */\n  dup4\n    /* \"#utility.yul\":960:967   */\n  dup6\n    /* \"#utility.yul\":956:979   */\n  sub\n    /* \"#utility.yul\":952:984   */\n  slt\n    /* \"#utility.yul\":949:1068   */\n  iszero\n  tag_27\n  jumpi\n    /* \"#utility.yul\":987:1066   */\n  tag_28\n  tag_8\n  jump\t// in\ntag_28:\n    /* \"#utility.yul\":949:1068   */\ntag_27:\n    /* \"#utility.yul\":1107:1108   */\n  0x00\n    /* \"#utility.yul\":1132:1196   */\n  tag_29\n    /* \"#utility.yul\":1188:1195   */\n  dup6\n    /* \"#utility.yul\":1179:1185   */\n  dup3\n    /* \"#utility.yul\":1168:1177   */\n  dup7\n    /* \"#utility.yul\":1164:1186   */\n  add\n    /* \"#utility.yul\":1132:1196   */\n  tag_13\n  jump\t// in\ntag_29:\n    /* \"#utility.yul\":1122:1196   */\n  swap3\n  pop\n    /* \"#utility.yul\":1078:1206   */\n  pop\n    /* \"#utility.yul\":1245:1247   */\n  0x20\n    /* \"#utility.yul\":1271:1335   */\n  tag_30\n    /* \"#utility.yul\":1327:1334   */\n  dup6\n    /* \"#utility.yul\":1318:1324   */\n  dup3\n    /* \"#utility.yul\":1307:1316   */\n  dup7\n    /* \"#utility.yul\":1303:1325   */\n  add\n    /* \"#utility.yul\":1271:1335   */\n  tag_13\n  jump\t// in\ntag_30:\n    /* \"#utility.yul\":1261:1335   */\n  swap2\n  pop\n    /* \"#utility.yul\":1216:1345   */\n  pop\n    /* \"#utility.yul\":845:1352   */\n  swap3\n  pop\n  swap3\n  swap1\n  pop\n  jump\t// out\n    /* \"PaymentProcessor.sol\":173:3284  contract PaymentProcessor {... */\ntag_6:\n  dataSize(sub_0)\n  dup1\n  dataOffset(sub_0)\n  0x00\n  codecopy\n  0x00\n  return\nstop\n\nsub_0: assembly {\n        /* \"PaymentProcessor.sol\":173:3284  contract PaymentProcessor {... */\n      mstore(0x40, 0x80)\n      callvalue\n      dup1\n      iszero\n      tag_1\n      jumpi\n      0x00\n      dup1\n      revert\n    tag_1:\n      pop\n      jumpi(tag_2, lt(calldatasize, 0x04))\n      shr(0xe0, calldataload(0x00))\n      dup1\n      0x5c60da1b\n      gt\n      tag_10\n      jumpi\n      dup1\n      0x5c60da1b\n      eq\n      tag_6\n      jumpi\n      dup1\n      0x61150923\n      eq\n      tag_7\n      jumpi\n      dup1\n      0x67074c21\n      eq\n      tag_8\n      jumpi\n      dup1\n      0x8da5cb5b\n      eq\n      tag_9\n      jumpi\n      jump(tag_2)\n    tag_10:\n      dup1\n      0x0716326d\n      eq\n      tag_3\n      jumpi\n      dup1\n      0x2dc90865\n      eq\n      tag_4\n      jumpi\n      dup1\n      0x3ea521ef\n      eq\n      tag_5\n      jumpi\n    tag_2:\n      0x00\n      dup1\n      revert\n        /* \"PaymentProcessor.sol\":330:373  mapping(bytes32 => Payment) public payments */\n    tag_3:\n      tag_11\n      0x04\n      dup1\n      calldatasize\n      sub\n      dup2\n      add\n      swap1\n      tag_12\n      swap2\n      swap1\n      tag_13\n      jump\t// in\n    tag_12:\n      tag_14\n      jump\t// in\n    tag_11:\n      mload(0x40)\n      tag_15\n      swap5\n      swap4\n      swap3\n      swap2\n      swap1\n      tag_16\n      jump\t// in\n    tag_15:\n      mload(0x40)\n      dup1\n      swap2\n      sub\n      swap1\n      return\n        /* \"PaymentProcessor.sol\":1068:2249  function createPaymentProxy(bytes32 cartUuid, uint256 payAmount, uint256 expirationDate) external returns (address) {... */\n    tag_4:\n      tag_17\n      0x04\n      dup1\n      calldatasize\n      sub\n      dup2\n      add\n      swap1\n      tag_18\n      swap2\n      swap1\n      tag_19\n      jump\t// in\n    tag_18:\n      tag_20\n      jump\t// in\n    tag_17:\n      mload(0x40)\n      tag_21\n      swap2\n      swap1\n      tag_22\n      jump\t// in\n    tag_21:\n      mload(0x40)\n      dup1\n      swap2\n      sub\n      swap1\n      return\n        /* \"PaymentProcessor.sol\":3046:3281  function withdrawUSDT(uint256 amount) external {... */\n    tag_5:\n      tag_23\n      0x04\n      dup1\n      calldatasize\n      sub\n      dup2\n      add\n      swap1\n      tag_24\n      swap2\n      swap1\n      tag_25\n      jump\t// in\n    tag_24:\n      tag_26\n      jump\t// in\n    tag_23:\n      stop\n        /* \"PaymentProcessor.sol\":267:296  address public implementation */\n    tag_6:\n      tag_27\n      tag_28\n      jump\t// in\n    tag_27:\n      mload(0x40)\n      tag_29\n      swap2\n      swap1\n      tag_22\n      jump\t// in\n    tag_29:\n      mload(0x40)\n      dup1\n      swap2\n      sub\n      swap1\n      return\n        /* \"PaymentProcessor.sol\":233:260  address public usdtContract */\n    tag_7:\n      tag_30\n      tag_31\n      jump\t// in\n    tag_30:\n      mload(0x40)\n      tag_32\n      swap2\n      swap1\n      tag_22\n      jump\t// in\n    tag_32:\n      mload(0x40)\n      dup1\n      swap2\n      sub\n      swap1\n      return\n        /* \"PaymentProcessor.sol\":2708:3002  function markPaymentProcessed(bytes32 cartUuid) external {... */\n    tag_8:\n      tag_33\n      0x04\n      dup1\n      calldatasize\n      sub\n      dup2\n      add\n      swap1\n      tag_34\n      swap2\n      swap1\n      tag_13\n      jump\t// in\n    tag_34:\n      tag_35\n      jump\t// in\n    tag_33:\n      stop\n        /* \"PaymentProcessor.sol\":206:226  address public owner */\n    tag_9:\n      tag_36\n      tag_37\n      jump\t// in\n    tag_36:\n      mload(0x40)\n      tag_38\n      swap2\n      swap1\n      tag_22\n      jump\t// in\n    tag_38:\n      mload(0x40)\n      dup1\n      swap2\n      sub\n      swap1\n      return\n        /* \"PaymentProcessor.sol\":330:373  mapping(bytes32 => Payment) public payments */\n    tag_14:\n      mstore(0x20, 0x03)\n      dup1\n      0x00\n      mstore\n      keccak256(0x00, 0x40)\n      0x00\n      swap2\n      pop\n      swap1\n      pop\n      dup1\n      0x00\n      add\n      0x00\n      swap1\n      sload\n      swap1\n      0x0100\n      exp\n      swap1\n      div\n      0xffffffffffffffffffffffffffffffffffffffff\n      and\n      swap1\n      dup1\n      0x01\n      add\n      sload\n      swap1\n      dup1\n      0x02\n      add\n      sload\n      swap1\n      dup1\n      0x03\n      add\n      0x00\n      swap1\n      sload\n      swap1\n      0x0100\n      exp\n      swap1\n      div\n      0xff\n      and\n      swap1\n      pop\n      dup5\n      jump\t// out\n        /* \"PaymentProcessor.sol\":1068:2249  function createPaymentProxy(bytes32 cartUuid, uint256 payAmount, uint256 expirationDate) external returns (address) {... */\n    tag_20:\n        /* \"PaymentProcessor.sol\":1175:1182  address */\n      0x00\n        /* \"PaymentProcessor.sol\":1217:1222  owner */\n      dup1\n      0x00\n      swap1\n      sload\n      swap1\n      0x0100\n      exp\n      swap1\n      div\n      0xffffffffffffffffffffffffffffffffffffffff\n      and\n        /* \"PaymentProcessor.sol\":1203:1222  msg.sender == owner */\n      0xffffffffffffffffffffffffffffffffffffffff\n      and\n        /* \"PaymentProcessor.sol\":1203:1213  msg.sender */\n      caller\n        /* \"PaymentProcessor.sol\":1203:1222  msg.sender == owner */\n      0xffffffffffffffffffffffffffffffffffffffff\n      and\n      eq\n        /* \"PaymentProcessor.sol\":1195:1257  require(msg.sender == owner, \"Only owner can create payments\") */\n      tag_40\n      jumpi\n      mload(0x40)\n      0x08c379a000000000000000000000000000000000000000000000000000000000\n      dup2\n      mstore\n      0x04\n      add\n      tag_41\n      swap1\n      tag_42\n      jump\t// in\n    tag_41:\n      mload(0x40)\n      dup1\n      swap2\n      sub\n      swap1\n      revert\n    tag_40:\n        /* \"PaymentProcessor.sol\":1277:1285  payments */\n      0x03\n        /* \"PaymentProcessor.sol\":1277:1295  payments[cartUuid] */\n      0x00\n        /* \"PaymentProcessor.sol\":1286:1294  cartUuid */\n      dup6\n        /* \"PaymentProcessor.sol\":1277:1295  payments[cartUuid] */\n      dup2\n      mstore\n      0x20\n      add\n      swap1\n      dup2\n      mstore\n      0x20\n      add\n      0x00\n      keccak256\n        /* \"PaymentProcessor.sol\":1277:1307  payments[cartUuid].isProcessed */\n      0x03\n      add\n      0x00\n      swap1\n      sload\n      swap1\n      0x0100\n      exp\n      swap1\n      div\n      0xff\n      and\n        /* \"PaymentProcessor.sol\":1276:1307  !payments[cartUuid].isProcessed */\n      iszero\n        /* \"PaymentProcessor.sol\":1268:1337  require(!payments[cartUuid].isProcessed, \"Payment already processed\") */\n      tag_43\n      jumpi\n      mload(0x40)\n      0x08c379a000000000000000000000000000000000000000000000000000000000\n      dup2\n      mstore\n      0x04\n      add\n      tag_44\n      swap1\n      tag_45\n      jump\t// in\n    tag_44:\n      mload(0x40)\n      dup1\n      swap2\n      sub\n      swap1\n      revert\n    tag_43:\n        /* \"PaymentProcessor.sol\":1428:1448  address proxyAddress */\n      0x00\n        /* \"PaymentProcessor.sol\":1451:1502  Clones.cloneDeterministic(implementation, cartUuid) */\n      tag_46\n        /* \"PaymentProcessor.sol\":1477:1491  implementation */\n      0x02\n      0x00\n      swap1\n      sload\n      swap1\n      0x0100\n      exp\n      swap1\n      div\n      0xffffffffffffffffffffffffffffffffffffffff\n      and\n        /* \"PaymentProcessor.sol\":1493:1501  cartUuid */\n      dup7\n        /* \"PaymentProcessor.sol\":1451:1476  Clones.cloneDeterministic */\n      tag_47\n        /* \"PaymentProcessor.sol\":1451:1502  Clones.cloneDeterministic(implementation, cartUuid) */\n      jump\t// in\n    tag_46:\n        /* \"PaymentProcessor.sol\":1428:1502  address proxyAddress = Clones.cloneDeterministic(implementation, cartUuid) */\n      swap1\n      pop\n        /* \"PaymentProcessor.sol\":1534:1589  Payment(proxyAddress, payAmount, expirationDate, false) */\n      mload(0x40)\n      dup1\n      0x80\n      add\n      0x40\n      mstore\n      dup1\n        /* \"PaymentProcessor.sol\":1542:1554  proxyAddress */\n      dup3\n        /* \"PaymentProcessor.sol\":1534:1589  Payment(proxyAddress, payAmount, expirationDate, false) */\n      0xffffffffffffffffffffffffffffffffffffffff\n      and\n      dup2\n      mstore\n      0x20\n      add\n        /* \"PaymentProcessor.sol\":1556:1565  payAmount */\n      dup6\n        /* \"PaymentProcessor.sol\":1534:1589  Payment(proxyAddress, payAmount, expirationDate, false) */\n      dup2\n      mstore\n      0x20\n      add\n        /* \"PaymentProcessor.sol\":1567:1581  expirationDate */\n      dup5\n        /* \"PaymentProcessor.sol\":1534:1589  Payment(proxyAddress, payAmount, expirationDate, false) */\n      dup2\n      mstore\n      0x20\n      add\n        /* \"PaymentProcessor.sol\":1583:1588  false */\n      0x00\n        /* \"PaymentProcessor.sol\":1534:1589  Payment(proxyAddress, payAmount, expirationDate, false) */\n      iszero\n      iszero\n      dup2\n      mstore\n      pop\n        /* \"PaymentProcessor.sol\":1513:1521  payments */\n      0x03\n        /* \"PaymentProcessor.sol\":1513:1531  payments[cartUuid] */\n      0x00\n        /* \"PaymentProcessor.sol\":1522:1530  cartUuid */\n      dup8\n        /* \"PaymentProcessor.sol\":1513:1531  payments[cartUuid] */\n      dup2\n      mstore\n      0x20\n      add\n      swap1\n      dup2\n      mstore\n      0x20\n      add\n      0x00\n      keccak256\n        /* \"PaymentProcessor.sol\":1513:1589  payments[cartUuid] = Payment(proxyAddress, payAmount, expirationDate, false) */\n      0x00\n      dup3\n      add\n      mload\n      dup2\n      0x00\n      add\n      exp(0x0100, 0x00)\n      dup2\n      sload\n      dup2\n      0xffffffffffffffffffffffffffffffffffffffff\n      mul\n      not\n      and\n      swap1\n      dup4\n      0xffffffffffffffffffffffffffffffffffffffff\n      and\n      mul\n      or\n      swap1\n      sstore\n      pop\n      0x20\n      dup3\n      add\n      mload\n      dup2\n      0x01\n      add\n      sstore\n      0x40\n      dup3\n      add\n      mload\n      dup2\n      0x02\n      add\n      sstore\n      0x60\n      dup3\n      add\n      mload\n      dup2\n      0x03\n      add\n      exp(0x0100, 0x00)\n      dup2\n      sload\n      dup2\n      0xff\n      mul\n      not\n      and\n      swap1\n      dup4\n      iszero\n      iszero\n      mul\n      or\n      swap1\n      sstore\n      pop\n      swap1\n      pop\n      pop\n        /* \"PaymentProcessor.sol\":1694:1706  bool success */\n      0x00\n        /* \"PaymentProcessor.sol\":1708:1731  bytes memory returndata */\n      dup1\n        /* \"PaymentProcessor.sol\":1735:1747  proxyAddress */\n      dup3\n        /* \"PaymentProcessor.sol\":1735:1752  proxyAddress.call */\n      0xffffffffffffffffffffffffffffffffffffffff\n      and\n        /* \"PaymentProcessor.sol\":1822:1834  usdtContract */\n      0x01\n      0x00\n      swap1\n      sload\n      swap1\n      0x0100\n      exp\n      swap1\n      div\n      0xffffffffffffffffffffffffffffffffffffffff\n      and\n        /* \"PaymentProcessor.sol\":1836:1844  cartUuid */\n      dup9\n        /* \"PaymentProcessor.sol\":1767:1845  abi.encodeWithSignature(\"initialize(address,bytes32)\", usdtContract, cartUuid) */\n      add(0x24, mload(0x40))\n      tag_48\n      swap3\n      swap2\n      swap1\n      tag_49\n      jump\t// in\n    tag_48:\n      mload(0x40)\n      0x20\n      dup2\n      dup4\n      sub\n      sub\n      dup2\n      mstore\n      swap1\n      0x40\n      mstore\n      and(not(0xffffffffffffffffffffffffffffffffffffffffffffffffffffffff), 0xbe13f47c00000000000000000000000000000000000000000000000000000000)\n      0x20\n      dup3\n      add\n      dup1\n      mload\n      0xffffffffffffffffffffffffffffffffffffffffffffffffffffffff\n      dup4\n      dup2\n      dup4\n      and\n      or\n      dup4\n      mstore\n      pop\n      pop\n      pop\n      pop\n        /* \"PaymentProcessor.sol\":1735:1856  proxyAddress.call(... */\n      mload(0x40)\n      tag_50\n      swap2\n      swap1\n      tag_51\n      jump\t// in\n    tag_50:\n      0x00\n      mload(0x40)\n      dup1\n      dup4\n      sub\n      dup2\n      0x00\n      dup7\n      gas\n      call\n      swap2\n      pop\n      pop\n      returndatasize\n      dup1\n      0x00\n      dup2\n      eq\n      tag_54\n      jumpi\n      mload(0x40)\n      swap2\n      pop\n      and(add(returndatasize, 0x3f), not(0x1f))\n      dup3\n      add\n      0x40\n      mstore\n      returndatasize\n      dup3\n      mstore\n      returndatasize\n      0x00\n      0x20\n      dup5\n      add\n      returndatacopy\n      jump(tag_53)\n    tag_54:\n      0x60\n      swap2\n      pop\n    tag_53:\n      pop\n        /* \"PaymentProcessor.sol\":1693:1856  (bool success, bytes memory returndata) = proxyAddress.call(... */\n      swap2\n      pop\n      swap2\n      pop\n        /* \"PaymentProcessor.sol\":1872:1879  success */\n      dup2\n        /* \"PaymentProcessor.sol\":1867:2158  if (!success) {... */\n      tag_55\n      jumpi\n        /* \"PaymentProcessor.sol\":1920:1922  68 */\n      0x44\n        /* \"PaymentProcessor.sol\":1900:1910  returndata */\n      dup2\n        /* \"PaymentProcessor.sol\":1900:1917  returndata.length */\n      mload\n        /* \"PaymentProcessor.sol\":1900:1922  returndata.length > 68 */\n      gt\n        /* \"PaymentProcessor.sol\":1896:2147  if (returndata.length > 68) {... */\n      iszero\n      tag_56\n      jumpi\n        /* \"PaymentProcessor.sol\":1943:1964  bytes memory stripped */\n      0x00\n        /* \"PaymentProcessor.sol\":1967:2010  slice(returndata, 4, returndata.length - 4) */\n      tag_57\n        /* \"PaymentProcessor.sol\":1973:1983  returndata */\n      dup3\n        /* \"PaymentProcessor.sol\":1985:1986  4 */\n      0x04\n        /* \"PaymentProcessor.sol\":2008:2009  4 */\n      dup1\n        /* \"PaymentProcessor.sol\":1988:1998  returndata */\n      dup6\n        /* \"PaymentProcessor.sol\":1988:2005  returndata.length */\n      mload\n        /* \"PaymentProcessor.sol\":1988:2009  returndata.length - 4 */\n      tag_58\n      swap2\n      swap1\n      tag_59\n      jump\t// in\n    tag_58:\n        /* \"PaymentProcessor.sol\":1967:1972  slice */\n      tag_60\n        /* \"PaymentProcessor.sol\":1967:2010  slice(returndata, 4, returndata.length - 4) */\n      jump\t// in\n    tag_57:\n        /* \"PaymentProcessor.sol\":1943:2010  bytes memory stripped = slice(returndata, 4, returndata.length - 4) */\n      swap1\n      pop\n        /* \"PaymentProcessor.sol\":2043:2051  stripped */\n      dup1\n        /* \"PaymentProcessor.sol\":2029:2053  revert(string(stripped)) */\n      mload(0x40)\n      0x08c379a000000000000000000000000000000000000000000000000000000000\n      dup2\n      mstore\n      0x04\n      add\n      tag_61\n      swap2\n      swap1\n      tag_62\n      jump\t// in\n    tag_61:\n      mload(0x40)\n      dup1\n      swap2\n      sub\n      swap1\n      revert\n        /* \"PaymentProcessor.sol\":1896:2147  if (returndata.length > 68) {... */\n    tag_56:\n        /* \"PaymentProcessor.sol\":2094:2131  revert(\"Proxy initialization failed\") */\n      mload(0x40)\n      0x08c379a000000000000000000000000000000000000000000000000000000000\n      dup2\n      mstore\n      0x04\n      add\n      tag_64\n      swap1\n      tag_65\n      jump\t// in\n    tag_64:\n      mload(0x40)\n      dup1\n      swap2\n      sub\n      swap1\n      revert\n        /* \"PaymentProcessor.sol\":1867:2158  if (!success) {... */\n    tag_55:\n        /* \"PaymentProcessor.sol\":2202:2210  cartUuid */\n      dup7\n        /* \"PaymentProcessor.sol\":2188:2200  proxyAddress */\n      dup4\n        /* \"PaymentProcessor.sol\":2175:2211  ProxyCreated(proxyAddress, cartUuid) */\n      0xffffffffffffffffffffffffffffffffffffffff\n      and\n      0xcfaab0d6675a72a93c114f48dd85add1076be0c88545968759ef034da7ad146f\n      mload(0x40)\n      mload(0x40)\n      dup1\n      swap2\n      sub\n      swap1\n      log3\n        /* \"PaymentProcessor.sol\":2229:2241  proxyAddress */\n      dup3\n        /* \"PaymentProcessor.sol\":2222:2241  return proxyAddress */\n      swap4\n      pop\n      pop\n      pop\n      pop\n        /* \"PaymentProcessor.sol\":1068:2249  function createPaymentProxy(bytes32 cartUuid, uint256 payAmount, uint256 expirationDate) external returns (address) {... */\n      swap4\n      swap3\n      pop\n      pop\n      pop\n      jump\t// out\n        /* \"PaymentProcessor.sol\":3046:3281  function withdrawUSDT(uint256 amount) external {... */\n    tag_26:\n        /* \"PaymentProcessor.sol\":3126:3131  owner */\n      0x00\n      dup1\n      sload\n      swap1\n      0x0100\n      exp\n      swap1\n      div\n      0xffffffffffffffffffffffffffffffffffffffff\n      and\n        /* \"PaymentProcessor.sol\":3112:3131  msg.sender == owner */\n      0xffffffffffffffffffffffffffffffffffffffff\n      and\n        /* \"PaymentProcessor.sol\":3112:3122  msg.sender */\n      caller\n        /* \"PaymentProcessor.sol\":3112:3131  msg.sender == owner */\n      0xffffffffffffffffffffffffffffffffffffffff\n      and\n      eq\n        /* \"PaymentProcessor.sol\":3104:3159  require(msg.sender == owner, \"Only owner can withdraw\") */\n      tag_67\n      jumpi\n      mload(0x40)\n      0x08c379a000000000000000000000000000000000000000000000000000000000\n      dup2\n      mstore\n      0x04\n      add\n      tag_68\n      swap1\n      tag_69\n      jump\t// in\n    tag_68:\n      mload(0x40)\n      dup1\n      swap2\n      sub\n      swap1\n      revert\n    tag_67:\n        /* \"PaymentProcessor.sol\":3170:3181  IERC20 usdt */\n      0x00\n        /* \"PaymentProcessor.sol\":3191:3203  usdtContract */\n      0x01\n      0x00\n      swap1\n      sload\n      swap1\n      0x0100\n      exp\n      swap1\n      div\n      0xffffffffffffffffffffffffffffffffffffffff\n      and\n        /* \"PaymentProcessor.sol\":3170:3204  IERC20 usdt = IERC20(usdtContract) */\n      swap1\n      pop\n        /* \"PaymentProcessor.sol\":3223:3227  usdt */\n      dup1\n        /* \"PaymentProcessor.sol\":3223:3236  usdt.transfer */\n      0xffffffffffffffffffffffffffffffffffffffff\n      and\n      0xa9059cbb\n        /* \"PaymentProcessor.sol\":3237:3242  owner */\n      0x00\n      dup1\n      sload\n      swap1\n      0x0100\n      exp\n      swap1\n      div\n      0xffffffffffffffffffffffffffffffffffffffff\n      and\n        /* \"PaymentProcessor.sol\":3244:3250  amount */\n      dup5\n        /* \"PaymentProcessor.sol\":3223:3251  usdt.transfer(owner, amount) */\n      mload(0x40)\n      dup4\n      0xffffffff\n      and\n      0xe0\n      shl\n      dup2\n      mstore\n      0x04\n      add\n      tag_70\n      swap3\n      swap2\n      swap1\n      tag_71\n      jump\t// in\n    tag_70:\n      0x20\n      mload(0x40)\n      dup1\n      dup4\n      sub\n      dup2\n      0x00\n      dup8\n      gas\n      call\n      iszero\n      dup1\n      iszero\n      tag_73\n      jumpi\n      returndatasize\n      0x00\n      dup1\n      returndatacopy\n      revert(0x00, returndatasize)\n    tag_73:\n      pop\n      pop\n      pop\n      pop\n      mload(0x40)\n      returndatasize\n      not(0x1f)\n      0x1f\n      dup3\n      add\n      and\n      dup3\n      add\n      dup1\n      0x40\n      mstore\n      pop\n      dup2\n      add\n      swap1\n      tag_74\n      swap2\n      swap1\n      tag_75\n      jump\t// in\n    tag_74:\n        /* \"PaymentProcessor.sol\":3215:3273  require(usdt.transfer(owner, amount), \"Withdrawal failed\") */\n      tag_76\n      jumpi\n      mload(0x40)\n      0x08c379a000000000000000000000000000000000000000000000000000000000\n      dup2\n      mstore\n      0x04\n      add\n      tag_77\n      swap1\n      tag_78\n      jump\t// in\n    tag_77:\n      mload(0x40)\n      dup1\n      swap2\n      sub\n      swap1\n      revert\n    tag_76:\n        /* \"PaymentProcessor.sol\":3093:3281  {... */\n      pop\n        /* \"PaymentProcessor.sol\":3046:3281  function withdrawUSDT(uint256 amount) external {... */\n      pop\n      jump\t// out\n        /* \"PaymentProcessor.sol\":267:296  address public implementation */\n    tag_28:\n      0x02\n      0x00\n      swap1\n      sload\n      swap1\n      0x0100\n      exp\n      swap1\n      div\n      0xffffffffffffffffffffffffffffffffffffffff\n      and\n      dup2\n      jump\t// out\n        /* \"PaymentProcessor.sol\":233:260  address public usdtContract */\n    tag_31:\n      0x01\n      0x00\n      swap1\n      sload\n      swap1\n      0x0100\n      exp\n      swap1\n      div\n      0xffffffffffffffffffffffffffffffffffffffff\n      and\n      dup2\n      jump\t// out\n        /* \"PaymentProcessor.sol\":2708:3002  function markPaymentProcessed(bytes32 cartUuid) external {... */\n    tag_35:\n        /* \"PaymentProcessor.sol\":2798:2806  payments */\n      0x03\n        /* \"PaymentProcessor.sol\":2798:2816  payments[cartUuid] */\n      0x00\n        /* \"PaymentProcessor.sol\":2807:2815  cartUuid */\n      dup3\n        /* \"PaymentProcessor.sol\":2798:2816  payments[cartUuid] */\n      dup2\n      mstore\n      0x20\n      add\n      swap1\n      dup2\n      mstore\n      0x20\n      add\n      0x00\n      keccak256\n        /* \"PaymentProcessor.sol\":2798:2829  payments[cartUuid].proxyAddress */\n      0x00\n      add\n      0x00\n      swap1\n      sload\n      swap1\n      0x0100\n      exp\n      swap1\n      div\n      0xffffffffffffffffffffffffffffffffffffffff\n      and\n        /* \"PaymentProcessor.sol\":2784:2829  msg.sender == payments[cartUuid].proxyAddress */\n      0xffffffffffffffffffffffffffffffffffffffff\n      and\n        /* \"PaymentProcessor.sol\":2784:2794  msg.sender */\n      caller\n        /* \"PaymentProcessor.sol\":2784:2829  msg.sender == payments[cartUuid].proxyAddress */\n      0xffffffffffffffffffffffffffffffffffffffff\n      and\n      eq\n        /* \"PaymentProcessor.sol\":2776:2866  require(msg.sender == payments[cartUuid].proxyAddress, \"Only proxy can mark as processed\") */\n      tag_80\n      jumpi\n      mload(0x40)\n      0x08c379a000000000000000000000000000000000000000000000000000000000\n      dup2\n      mstore\n      0x04\n      add\n      tag_81\n      swap1\n      tag_82\n      jump\t// in\n    tag_81:\n      mload(0x40)\n      dup1\n      swap2\n      sub\n      swap1\n      revert\n    tag_80:\n        /* \"PaymentProcessor.sol\":2886:2894  payments */\n      0x03\n        /* \"PaymentProcessor.sol\":2886:2904  payments[cartUuid] */\n      0x00\n        /* \"PaymentProcessor.sol\":2895:2903  cartUuid */\n      dup3\n        /* \"PaymentProcessor.sol\":2886:2904  payments[cartUuid] */\n      dup2\n      mstore\n      0x20\n      add\n      swap1\n      dup2\n      mstore\n      0x20\n      add\n      0x00\n      keccak256\n        /* \"PaymentProcessor.sol\":2886:2916  payments[cartUuid].isProcessed */\n      0x03\n      add\n      0x00\n      swap1\n      sload\n      swap1\n      0x0100\n      exp\n      swap1\n      div\n      0xff\n      and\n        /* \"PaymentProcessor.sol\":2885:2916  !payments[cartUuid].isProcessed */\n      iszero\n        /* \"PaymentProcessor.sol\":2877:2946  require(!payments[cartUuid].isProcessed, \"Payment already processed\") */\n      tag_83\n      jumpi\n      mload(0x40)\n      0x08c379a000000000000000000000000000000000000000000000000000000000\n      dup2\n      mstore\n      0x04\n      add\n      tag_84\n      swap1\n      tag_45\n      jump\t// in\n    tag_84:\n      mload(0x40)\n      dup1\n      swap2\n      sub\n      swap1\n      revert\n    tag_83:\n        /* \"PaymentProcessor.sol\":2990:2994  true */\n      0x01\n        /* \"PaymentProcessor.sol\":2957:2965  payments */\n      0x03\n        /* \"PaymentProcessor.sol\":2957:2975  payments[cartUuid] */\n      0x00\n        /* \"PaymentProcessor.sol\":2966:2974  cartUuid */\n      dup4\n        /* \"PaymentProcessor.sol\":2957:2975  payments[cartUuid] */\n      dup2\n      mstore\n      0x20\n      add\n      swap1\n      dup2\n      mstore\n      0x20\n      add\n      0x00\n      keccak256\n        /* \"PaymentProcessor.sol\":2957:2987  payments[cartUuid].isProcessed */\n      0x03\n      add\n      0x00\n        /* \"PaymentProcessor.sol\":2957:2994  payments[cartUuid].isProcessed = true */\n      0x0100\n      exp\n      dup2\n      sload\n      dup2\n      0xff\n      mul\n      not\n      and\n      swap1\n      dup4\n      iszero\n      iszero\n      mul\n      or\n      swap1\n      sstore\n      pop\n        /* \"PaymentProcessor.sol\":2708:3002  function markPaymentProcessed(bytes32 cartUuid) external {... */\n      pop\n      jump\t// out\n        /* \"PaymentProcessor.sol\":206:226  address public owner */\n    tag_37:\n      0x00\n      dup1\n      sload\n      swap1\n      0x0100\n      exp\n      swap1\n      div\n      0xffffffffffffffffffffffffffffffffffffffff\n      and\n      dup2\n      jump\t// out\n        /* \"@openzeppelin/contracts/proxy/Clones.sol\":2870:3039  function cloneDeterministic(address implementation, bytes32 salt) internal returns (address instance) {... */\n    tag_47:\n        /* \"@openzeppelin/contracts/proxy/Clones.sol\":2954:2970  address instance */\n      0x00\n        /* \"@openzeppelin/contracts/proxy/Clones.sol\":2989:3032  cloneDeterministic(implementation, salt, 0) */\n      tag_86\n        /* \"@openzeppelin/contracts/proxy/Clones.sol\":3008:3022  implementation */\n      dup4\n        /* \"@openzeppelin/contracts/proxy/Clones.sol\":3024:3028  salt */\n      dup4\n        /* \"@openzeppelin/contracts/proxy/Clones.sol\":3030:3031  0 */\n      0x00\n        /* \"@openzeppelin/contracts/proxy/Clones.sol\":2989:3007  cloneDeterministic */\n      tag_87\n        /* \"@openzeppelin/contracts/proxy/Clones.sol\":2989:3032  cloneDeterministic(implementation, salt, 0) */\n      jump\t// in\n    tag_86:\n        /* \"@openzeppelin/contracts/proxy/Clones.sol\":2982:3032  return cloneDeterministic(implementation, salt, 0) */\n      swap1\n      pop\n        /* \"@openzeppelin/contracts/proxy/Clones.sol\":2870:3039  function cloneDeterministic(address implementation, bytes32 salt) internal returns (address instance) {... */\n      swap3\n      swap2\n      pop\n      pop\n      jump\t// out\n        /* \"PaymentProcessor.sol\":2357:2615  function slice(bytes memory data, uint256 start, uint256 len) internal pure returns (bytes memory) {... */\n    tag_60:\n        /* \"PaymentProcessor.sol\":2442:2454  bytes memory */\n      0x60\n        /* \"PaymentProcessor.sol\":2467:2481  bytes memory b */\n      0x00\n        /* \"PaymentProcessor.sol\":2494:2497  len */\n      dup3\n        /* \"PaymentProcessor.sol\":2484:2498  new bytes(len) */\n      0xffffffffffffffff\n      dup2\n      gt\n      iszero\n      tag_89\n      jumpi\n      tag_90\n      tag_91\n      jump\t// in\n    tag_90:\n    tag_89:\n      mload(0x40)\n      swap1\n      dup1\n      dup3\n      mstore\n      dup1\n      0x1f\n      add\n      not(0x1f)\n      and\n      0x20\n      add\n      dup3\n      add\n      0x40\n      mstore\n      dup1\n      iszero\n      tag_92\n      jumpi\n      dup2\n      0x20\n      add\n      0x01\n      dup3\n      mul\n      dup1\n      calldatasize\n      dup4\n      calldatacopy\n      dup1\n      dup3\n      add\n      swap2\n      pop\n      pop\n      swap1\n      pop\n    tag_92:\n      pop\n        /* \"PaymentProcessor.sol\":2467:2498  bytes memory b = new bytes(len) */\n      swap1\n      pop\n        /* \"PaymentProcessor.sol\":2514:2520  uint i */\n      0x00\n        /* \"PaymentProcessor.sol\":2509:2589  for (uint i = 0; i < len; i++) {... */\n    tag_93:\n        /* \"PaymentProcessor.sol\":2530:2533  len */\n      dup4\n        /* \"PaymentProcessor.sol\":2526:2527  i */\n      dup2\n        /* \"PaymentProcessor.sol\":2526:2533  i < len */\n      lt\n        /* \"PaymentProcessor.sol\":2509:2589  for (uint i = 0; i < len; i++) {... */\n      iszero\n      tag_94\n      jumpi\n        /* \"PaymentProcessor.sol\":2562:2566  data */\n      dup6\n        /* \"PaymentProcessor.sol\":2571:2576  start */\n      dup6\n        /* \"PaymentProcessor.sol\":2567:2568  i */\n      dup3\n        /* \"PaymentProcessor.sol\":2567:2576  i + start */\n      tag_96\n      swap2\n      swap1\n      tag_97\n      jump\t// in\n    tag_96:\n        /* \"PaymentProcessor.sol\":2562:2577  data[i + start] */\n      dup2\n      mload\n      dup2\n      lt\n      tag_98\n      jumpi\n      tag_99\n      tag_100\n      jump\t// in\n    tag_99:\n    tag_98:\n      0x20\n      add\n      add\n      mload\n      0xf8\n      shr\n      0xf8\n      shl\n        /* \"PaymentProcessor.sol\":2555:2556  b */\n      dup3\n        /* \"PaymentProcessor.sol\":2557:2558  i */\n      dup3\n        /* \"PaymentProcessor.sol\":2555:2559  b[i] */\n      dup2\n      mload\n      dup2\n      lt\n      tag_101\n      jumpi\n      tag_102\n      tag_100\n      jump\t// in\n    tag_102:\n    tag_101:\n      0x20\n      add\n      add\n        /* \"PaymentProcessor.sol\":2555:2577  b[i] = data[i + start] */\n      swap1\n      not(0xffffffffffffffffffffffffffffffffffffffffffffffffffffffffffffff)\n      and\n      swap1\n      dup2\n      0x00\n      byte\n      swap1\n      mstore8\n      pop\n        /* \"PaymentProcessor.sol\":2535:2538  i++ */\n      dup1\n      dup1\n      tag_103\n      swap1\n      tag_104\n      jump\t// in\n    tag_103:\n      swap2\n      pop\n      pop\n        /* \"PaymentProcessor.sol\":2509:2589  for (uint i = 0; i < len; i++) {... */\n      jump(tag_93)\n    tag_94:\n      pop\n        /* \"PaymentProcessor.sol\":2606:2607  b */\n      dup1\n        /* \"PaymentProcessor.sol\":2599:2607  return b */\n      swap2\n      pop\n      pop\n        /* \"PaymentProcessor.sol\":2357:2615  function slice(bytes memory data, uint256 start, uint256 len) internal pure returns (bytes memory) {... */\n      swap4\n      swap3\n      pop\n      pop\n      pop\n      jump\t// out\n        /* \"@openzeppelin/contracts/proxy/Clones.sol\":3465:4439  function cloneDeterministic(... */\n    tag_87:\n        /* \"@openzeppelin/contracts/proxy/Clones.sol\":3594:3610  address instance */\n      0x00\n        /* \"@openzeppelin/contracts/proxy/Clones.sol\":3650:3655  value */\n      dup2\n        /* \"@openzeppelin/contracts/proxy/Clones.sol\":3626:3647  address(this).balance */\n      selfbalance\n        /* \"@openzeppelin/contracts/proxy/Clones.sol\":3626:3655  address(this).balance < value */\n      lt\n        /* \"@openzeppelin/contracts/proxy/Clones.sol\":3622:3745  if (address(this).balance < value) {... */\n      iszero\n      tag_106\n      jumpi\n        /* \"@openzeppelin/contracts/proxy/Clones.sol\":3705:3726  address(this).balance */\n      selfbalance\n        /* \"@openzeppelin/contracts/proxy/Clones.sol\":3728:3733  value */\n      dup3\n        /* \"@openzeppelin/contracts/proxy/Clones.sol\":3678:3734  Errors.InsufficientBalance(address(this).balance, value) */\n      mload(0x40)\n      0xcf47918100000000000000000000000000000000000000000000000000000000\n      dup2\n      mstore\n      0x04\n      add\n      tag_107\n      swap3\n      swap2\n      swap1\n      tag_108\n      jump\t// in\n    tag_107:\n      mload(0x40)\n      dup1\n      swap2\n      sub\n      swap1\n      revert\n        /* \"@openzeppelin/contracts/proxy/Clones.sol\":3622:3745  if (address(this).balance < value) {... */\n    tag_106:\n        /* \"@openzeppelin/contracts/proxy/Clones.sol\":4031:4079  0x3d602d80600a3d3981f3363d3d373d3d3d363d73000000 */\n      0x3d602d80600a3d3981f3363d3d373d3d3d363d73000000\n        /* \"@openzeppelin/contracts/proxy/Clones.sol\":4013:4027  implementation */\n      dup5\n        /* \"@openzeppelin/contracts/proxy/Clones.sol\":4007:4011  0x60 */\n      0x60\n        /* \"@openzeppelin/contracts/proxy/Clones.sol\":4003:4028  shl(0x60, implementation) */\n      shl\n        /* \"@openzeppelin/contracts/proxy/Clones.sol\":3997:4001  0xe8 */\n      0xe8\n        /* \"@openzeppelin/contracts/proxy/Clones.sol\":3993:4029  shr(0xe8, shl(0x60, implementation)) */\n      shr\n        /* \"@openzeppelin/contracts/proxy/Clones.sol\":3990:4080  or(shr(0xe8, shl(0x60, implementation)), 0x3d602d80600a3d3981f3363d3d373d3d3d363d73000000) */\n      or\n        /* \"@openzeppelin/contracts/proxy/Clones.sol\":3984:3988  0x00 */\n      0x00\n        /* \"@openzeppelin/contracts/proxy/Clones.sol\":3977:4081  mstore(0x00, or(shr(0xe8, shl(0x60, implementation)), 0x3d602d80600a3d3981f3363d3d373d3d3d363d73000000)) */\n      mstore\n        /* \"@openzeppelin/contracts/proxy/Clones.sol\":4238:4270  0x5af43d82803e903d91602b57fd5bf3 */\n      0x5af43d82803e903d91602b57fd5bf3\n        /* \"@openzeppelin/contracts/proxy/Clones.sol\":4221:4235  implementation */\n      dup5\n        /* \"@openzeppelin/contracts/proxy/Clones.sol\":4215:4219  0x78 */\n      0x78\n        /* \"@openzeppelin/contracts/proxy/Clones.sol\":4211:4236  shl(0x78, implementation) */\n      shl\n        /* \"@openzeppelin/contracts/proxy/Clones.sol\":4208:4271  or(shl(0x78, implementation), 0x5af43d82803e903d91602b57fd5bf3) */\n      or\n        /* \"@openzeppelin/contracts/proxy/Clones.sol\":4202:4206  0x20 */\n      0x20\n        /* \"@openzeppelin/contracts/proxy/Clones.sol\":4195:4272  mstore(0x20, or(shl(0x78, implementation), 0x5af43d82803e903d91602b57fd5bf3)) */\n      mstore\n        /* \"@openzeppelin/contracts/proxy/Clones.sol\":4324:4328  salt */\n      dup3\n        /* \"@openzeppelin/contracts/proxy/Clones.sol\":4318:4322  0x37 */\n      0x37\n        /* \"@openzeppelin/contracts/proxy/Clones.sol\":4312:4316  0x09 */\n      0x09\n        /* \"@openzeppelin/contracts/proxy/Clones.sol\":4305:4310  value */\n      dup5\n        /* \"@openzeppelin/contracts/proxy/Clones.sol\":4297:4329  create2(value, 0x09, 0x37, salt) */\n      create2\n        /* \"@openzeppelin/contracts/proxy/Clones.sol\":4285:4329  instance := create2(value, 0x09, 0x37, salt) */\n      swap1\n      pop\n        /* \"@openzeppelin/contracts/proxy/Clones.sol\":4372:4373  0 */\n      0x00\n        /* \"@openzeppelin/contracts/proxy/Clones.sol\":4352:4374  instance == address(0) */\n      0xffffffffffffffffffffffffffffffffffffffff\n      and\n        /* \"@openzeppelin/contracts/proxy/Clones.sol\":4352:4360  instance */\n      dup2\n        /* \"@openzeppelin/contracts/proxy/Clones.sol\":4352:4374  instance == address(0) */\n      0xffffffffffffffffffffffffffffffffffffffff\n      and\n      sub\n        /* \"@openzeppelin/contracts/proxy/Clones.sol\":4348:4433  if (instance == address(0)) {... */\n      tag_109\n      jumpi\n        /* \"@openzeppelin/contracts/proxy/Clones.sol\":4397:4422  Errors.FailedDeployment() */\n      mload(0x40)\n      0xb06ebf3d00000000000000000000000000000000000000000000000000000000\n      dup2\n      mstore\n      0x04\n      add\n      mload(0x40)\n      dup1\n      swap2\n      sub\n      swap1\n      revert\n        /* \"@openzeppelin/contracts/proxy/Clones.sol\":4348:4433  if (instance == address(0)) {... */\n    tag_109:\n        /* \"@openzeppelin/contracts/proxy/Clones.sol\":3465:4439  function cloneDeterministic(... */\n      swap4\n      swap3\n      pop\n      pop\n      pop\n      jump\t// out\n        /* \"#utility.yul\":88:205   */\n    tag_111:\n        /* \"#utility.yul\":197:198   */\n      0x00\n        /* \"#utility.yul\":194:195   */\n      dup1\n        /* \"#utility.yul\":187:199   */\n      revert\n        /* \"#utility.yul\":334:411   */\n    tag_113:\n        /* \"#utility.yul\":371:378   */\n      0x00\n        /* \"#utility.yul\":400:405   */\n      dup2\n        /* \"#utility.yul\":389:405   */\n      swap1\n      pop\n        /* \"#utility.yul\":334:411   */\n      swap2\n      swap1\n      pop\n      jump\t// out\n        /* \"#utility.yul\":417:539   */\n    tag_114:\n        /* \"#utility.yul\":490:514   */\n      tag_155\n        /* \"#utility.yul\":508:513   */\n      dup2\n        /* \"#utility.yul\":490:514   */\n      tag_113\n      jump\t// in\n    tag_155:\n        /* \"#utility.yul\":483:488   */\n      dup2\n        /* \"#utility.yul\":480:515   */\n      eq\n        /* \"#utility.yul\":470:533   */\n      tag_156\n      jumpi\n        /* \"#utility.yul\":529:530   */\n      0x00\n        /* \"#utility.yul\":526:527   */\n      dup1\n        /* \"#utility.yul\":519:531   */\n      revert\n        /* \"#utility.yul\":470:533   */\n    tag_156:\n        /* \"#utility.yul\":417:539   */\n      pop\n      jump\t// out\n        /* \"#utility.yul\":545:684   */\n    tag_115:\n        /* \"#utility.yul\":591:596   */\n      0x00\n        /* \"#utility.yul\":629:635   */\n      dup2\n        /* \"#utility.yul\":616:636   */\n      calldataload\n        /* \"#utility.yul\":607:636   */\n      swap1\n      pop\n        /* \"#utility.yul\":645:678   */\n      tag_158\n        /* \"#utility.yul\":672:677   */\n      dup2\n        /* \"#utility.yul\":645:678   */\n      tag_114\n      jump\t// in\n    tag_158:\n        /* \"#utility.yul\":545:684   */\n      swap3\n      swap2\n      pop\n      pop\n      jump\t// out\n        /* \"#utility.yul\":690:1019   */\n    tag_13:\n        /* \"#utility.yul\":749:755   */\n      0x00\n        /* \"#utility.yul\":798:800   */\n      0x20\n        /* \"#utility.yul\":786:795   */\n      dup3\n        /* \"#utility.yul\":777:784   */\n      dup5\n        /* \"#utility.yul\":773:796   */\n      sub\n        /* \"#utility.yul\":769:801   */\n      slt\n        /* \"#utility.yul\":766:885   */\n      iszero\n      tag_160\n      jumpi\n        /* \"#utility.yul\":804:883   */\n      tag_161\n      tag_111\n      jump\t// in\n    tag_161:\n        /* \"#utility.yul\":766:885   */\n    tag_160:\n        /* \"#utility.yul\":924:925   */\n      0x00\n        /* \"#utility.yul\":949:1002   */\n      tag_162\n        /* \"#utility.yul\":994:1001   */\n      dup5\n        /* \"#utility.yul\":985:991   */\n      dup3\n        /* \"#utility.yul\":974:983   */\n      dup6\n        /* \"#utility.yul\":970:992   */\n      add\n        /* \"#utility.yul\":949:1002   */\n      tag_115\n      jump\t// in\n    tag_162:\n        /* \"#utility.yul\":939:1002   */\n      swap2\n      pop\n        /* \"#utility.yul\":895:1012   */\n      pop\n        /* \"#utility.yul\":690:1019   */\n      swap3\n      swap2\n      pop\n      pop\n      jump\t// out\n        /* \"#utility.yul\":1025:1151   */\n    tag_116:\n        /* \"#utility.yul\":1062:1069   */\n      0x00\n        /* \"#utility.yul\":1102:1144   */\n      0xffffffffffffffffffffffffffffffffffffffff\n        /* \"#utility.yul\":1095:1100   */\n      dup3\n        /* \"#utility.yul\":1091:1145   */\n      and\n        /* \"#utility.yul\":1080:1145   */\n      swap1\n      pop\n        /* \"#utility.yul\":1025:1151   */\n      swap2\n      swap1\n      pop\n      jump\t// out\n        /* \"#utility.yul\":1157:1253   */\n    tag_117:\n        /* \"#utility.yul\":1194:1201   */\n      0x00\n        /* \"#utility.yul\":1223:1247   */\n      tag_165\n        /* \"#utility.yul\":1241:1246   */\n      dup3\n        /* \"#utility.yul\":1223:1247   */\n      tag_116\n      jump\t// in\n    tag_165:\n        /* \"#utility.yul\":1212:1247   */\n      swap1\n      pop\n        /* \"#utility.yul\":1157:1253   */\n      swap2\n      swap1\n      pop\n      jump\t// out\n        /* \"#utility.yul\":1259:1377   */\n    tag_118:\n        /* \"#utility.yul\":1346:1370   */\n      tag_167\n        /* \"#utility.yul\":1364:1369   */\n      dup2\n        /* \"#utility.yul\":1346:1370   */\n      tag_117\n      jump\t// in\n    tag_167:\n        /* \"#utility.yul\":1341:1344   */\n      dup3\n        /* \"#utility.yul\":1334:1371   */\n      mstore\n        /* \"#utility.yul\":1259:1377   */\n      pop\n      pop\n      jump\t// out\n        /* \"#utility.yul\":1383:1460   */\n    tag_119:\n        /* \"#utility.yul\":1420:1427   */\n      0x00\n        /* \"#utility.yul\":1449:1454   */\n      dup2\n        /* \"#utility.yul\":1438:1454   */\n      swap1\n      pop\n        /* \"#utility.yul\":1383:1460   */\n      swap2\n      swap1\n      pop\n      jump\t// out\n        /* \"#utility.yul\":1466:1584   */\n    tag_120:\n        /* \"#utility.yul\":1553:1577   */\n      tag_170\n        /* \"#utility.yul\":1571:1576   */\n      dup2\n        /* \"#utility.yul\":1553:1577   */\n      tag_119\n      jump\t// in\n    tag_170:\n        /* \"#utility.yul\":1548:1551   */\n      dup3\n        /* \"#utility.yul\":1541:1578   */\n      mstore\n        /* \"#utility.yul\":1466:1584   */\n      pop\n      pop\n      jump\t// out\n        /* \"#utility.yul\":1590:1680   */\n    tag_121:\n        /* \"#utility.yul\":1624:1631   */\n      0x00\n        /* \"#utility.yul\":1667:1672   */\n      dup2\n        /* \"#utility.yul\":1660:1673   */\n      iszero\n        /* \"#utility.yul\":1653:1674   */\n      iszero\n        /* \"#utility.yul\":1642:1674   */\n      swap1\n      pop\n        /* \"#utility.yul\":1590:1680   */\n      swap2\n      swap1\n      pop\n      jump\t// out\n        /* \"#utility.yul\":1686:1795   */\n    tag_122:\n        /* \"#utility.yul\":1767:1788   */\n      tag_173\n        /* \"#utility.yul\":1782:1787   */\n      dup2\n        /* \"#utility.yul\":1767:1788   */\n      tag_121\n      jump\t// in\n    tag_173:\n        /* \"#utility.yul\":1762:1765   */\n      dup3\n        /* \"#utility.yul\":1755:1789   */\n      mstore\n        /* \"#utility.yul\":1686:1795   */\n      pop\n      pop\n      jump\t// out\n        /* \"#utility.yul\":1801:2342   */\n    tag_16:\n        /* \"#utility.yul\":1972:1976   */\n      0x00\n        /* \"#utility.yul\":2010:2013   */\n      0x80\n        /* \"#utility.yul\":1999:2008   */\n      dup3\n        /* \"#utility.yul\":1995:2014   */\n      add\n        /* \"#utility.yul\":1987:2014   */\n      swap1\n      pop\n        /* \"#utility.yul\":2024:2095   */\n      tag_175\n        /* \"#utility.yul\":2092:2093   */\n      0x00\n        /* \"#utility.yul\":2081:2090   */\n      dup4\n        /* \"#utility.yul\":2077:2094   */\n      add\n        /* \"#utility.yul\":2068:2074   */\n      dup8\n        /* \"#utility.yul\":2024:2095   */\n      tag_118\n      jump\t// in\n    tag_175:\n        /* \"#utility.yul\":2105:2177   */\n      tag_176\n        /* \"#utility.yul\":2173:2175   */\n      0x20\n        /* \"#utility.yul\":2162:2171   */\n      dup4\n        /* \"#utility.yul\":2158:2176   */\n      add\n        /* \"#utility.yul\":2149:2155   */\n      dup7\n        /* \"#utility.yul\":2105:2177   */\n      tag_120\n      jump\t// in\n    tag_176:\n        /* \"#utility.yul\":2187:2259   */\n      tag_177\n        /* \"#utility.yul\":2255:2257   */\n      0x40\n        /* \"#utility.yul\":2244:2253   */\n      dup4\n        /* \"#utility.yul\":2240:2258   */\n      add\n        /* \"#utility.yul\":2231:2237   */\n      dup6\n        /* \"#utility.yul\":2187:2259   */\n      tag_120\n      jump\t// in\n    tag_177:\n        /* \"#utility.yul\":2269:2335   */\n      tag_178\n        /* \"#utility.yul\":2331:2333   */\n      0x60\n        /* \"#utility.yul\":2320:2329   */\n      dup4\n        /* \"#utility.yul\":2316:2334   */\n      add\n        /* \"#utility.yul\":2307:2313   */\n      dup5\n        /* \"#utility.yul\":2269:2335   */\n      tag_122\n      jump\t// in\n    tag_178:\n        /* \"#utility.yul\":1801:2342   */\n      swap6\n      swap5\n      pop\n      pop\n      pop\n      pop\n      pop\n      jump\t// out\n        /* \"#utility.yul\":2348:2470   */\n    tag_123:\n        /* \"#utility.yul\":2421:2445   */\n      tag_180\n        /* \"#utility.yul\":2439:2444   */\n      dup2\n        /* \"#utility.yul\":2421:2445   */\n      tag_119\n      jump\t// in\n    tag_180:\n        /* \"#utility.yul\":2414:2419   */\n      dup2\n        /* \"#utility.yul\":2411:2446   */\n      eq\n        /* \"#utility.yul\":2401:2464   */\n      tag_181\n      jumpi\n        /* \"#utility.yul\":2460:2461   */\n      0x00\n        /* \"#utility.yul\":2457:2458   */\n      dup1\n        /* \"#utility.yul\":2450:2462   */\n      revert\n        /* \"#utility.yul\":2401:2464   */\n    tag_181:\n        /* \"#utility.yul\":2348:2470   */\n      pop\n      jump\t// out\n        /* \"#utility.yul\":2476:2615   */\n    tag_124:\n        /* \"#utility.yul\":2522:2527   */\n      0x00\n        /* \"#utility.yul\":2560:2566   */\n      dup2\n        /* \"#utility.yul\":2547:2567   */\n      calldataload\n        /* \"#utility.yul\":2538:2567   */\n      swap1\n      pop\n        /* \"#utility.yul\":2576:2609   */\n      tag_183\n        /* \"#utility.yul\":2603:2608   */\n      dup2\n        /* \"#utility.yul\":2576:2609   */\n      tag_123\n      jump\t// in\n    tag_183:\n        /* \"#utility.yul\":2476:2615   */\n      swap3\n      swap2\n      pop\n      pop\n      jump\t// out\n        /* \"#utility.yul\":2621:3240   */\n    tag_19:\n        /* \"#utility.yul\":2698:2704   */\n      0x00\n        /* \"#utility.yul\":2706:2712   */\n      dup1\n        /* \"#utility.yul\":2714:2720   */\n      0x00\n        /* \"#utility.yul\":2763:2765   */\n      0x60\n        /* \"#utility.yul\":2751:2760   */\n      dup5\n        /* \"#utility.yul\":2742:2749   */\n      dup7\n        /* \"#utility.yul\":2738:2761   */\n      sub\n        /* \"#utility.yul\":2734:2766   */\n      slt\n        /* \"#utility.yul\":2731:2850   */\n      iszero\n      tag_185\n      jumpi\n        /* \"#utility.yul\":2769:2848   */\n      tag_186\n      tag_111\n      jump\t// in\n    tag_186:\n        /* \"#utility.yul\":2731:2850   */\n    tag_185:\n        /* \"#utility.yul\":2889:2890   */\n      0x00\n        /* \"#utility.yul\":2914:2967   */\n      tag_187\n        /* \"#utility.yul\":2959:2966   */\n      dup7\n        /* \"#utility.yul\":2950:2956   */\n      dup3\n        /* \"#utility.yul\":2939:2948   */\n      dup8\n        /* \"#utility.yul\":2935:2957   */\n      add\n        /* \"#utility.yul\":2914:2967   */\n      tag_115\n      jump\t// in\n    tag_187:\n        /* \"#utility.yul\":2904:2967   */\n      swap4\n      pop\n        /* \"#utility.yul\":2860:2977   */\n      pop\n        /* \"#utility.yul\":3016:3018   */\n      0x20\n        /* \"#utility.yul\":3042:3095   */\n      tag_188\n        /* \"#utility.yul\":3087:3094   */\n      dup7\n        /* \"#utility.yul\":3078:3084   */\n      dup3\n        /* \"#utility.yul\":3067:3076   */\n      dup8\n        /* \"#utility.yul\":3063:3085   */\n      add\n        /* \"#utility.yul\":3042:3095   */\n      tag_124\n      jump\t// in\n    tag_188:\n        /* \"#utility.yul\":3032:3095   */\n      swap3\n      pop\n        /* \"#utility.yul\":2987:3105   */\n      pop\n        /* \"#utility.yul\":3144:3146   */\n      0x40\n        /* \"#utility.yul\":3170:3223   */\n      tag_189\n        /* \"#utility.yul\":3215:3222   */\n      dup7\n        /* \"#utility.yul\":3206:3212   */\n      dup3\n        /* \"#utility.yul\":3195:3204   */\n      dup8\n        /* \"#utility.yul\":3191:3213   */\n      add\n        /* \"#utility.yul\":3170:3223   */\n      tag_124\n      jump\t// in\n    tag_189:\n        /* \"#utility.yul\":3160:3223   */\n      swap2\n      pop\n        /* \"#utility.yul\":3115:3233   */\n      pop\n        /* \"#utility.yul\":2621:3240   */\n      swap3\n      pop\n      swap3\n      pop\n      swap3\n      jump\t// out\n        /* \"#utility.yul\":3246:3468   */\n    tag_22:\n        /* \"#utility.yul\":3339:3343   */\n      0x00\n        /* \"#utility.yul\":3377:3379   */\n      0x20\n        /* \"#utility.yul\":3366:3375   */\n      dup3\n        /* \"#utility.yul\":3362:3380   */\n      add\n        /* \"#utility.yul\":3354:3380   */\n      swap1\n      pop\n        /* \"#utility.yul\":3390:3461   */\n      tag_191\n        /* \"#utility.yul\":3458:3459   */\n      0x00\n        /* \"#utility.yul\":3447:3456   */\n      dup4\n        /* \"#utility.yul\":3443:3460   */\n      add\n        /* \"#utility.yul\":3434:3440   */\n      dup5\n        /* \"#utility.yul\":3390:3461   */\n      tag_118\n      jump\t// in\n    tag_191:\n        /* \"#utility.yul\":3246:3468   */\n      swap3\n      swap2\n      pop\n      pop\n      jump\t// out\n        /* \"#utility.yul\":3474:3803   */\n    tag_25:\n        /* \"#utility.yul\":3533:3539   */\n      0x00\n        /* \"#utility.yul\":3582:3584   */\n      0x20\n        /* \"#utility.yul\":3570:3579   */\n      dup3\n        /* \"#utility.yul\":3561:3568   */\n      dup5\n        /* \"#utility.yul\":3557:3580   */\n      sub\n        /* \"#utility.yul\":3553:3585   */\n      slt\n        /* \"#utility.yul\":3550:3669   */\n      iszero\n      tag_193\n      jumpi\n        /* \"#utility.yul\":3588:3667   */\n      tag_194\n      tag_111\n      jump\t// in\n    tag_194:\n        /* \"#utility.yul\":3550:3669   */\n    tag_193:\n        /* \"#utility.yul\":3708:3709   */\n      0x00\n        /* \"#utility.yul\":3733:3786   */\n      tag_195\n        /* \"#utility.yul\":3778:3785   */\n      dup5\n        /* \"#utility.yul\":3769:3775   */\n      dup3\n        /* \"#utility.yul\":3758:3767   */\n      dup6\n        /* \"#utility.yul\":3754:3776   */\n      add\n        /* \"#utility.yul\":3733:3786   */\n      tag_124\n      jump\t// in\n    tag_195:\n        /* \"#utility.yul\":3723:3786   */\n      swap2\n      pop\n        /* \"#utility.yul\":3679:3796   */\n      pop\n        /* \"#utility.yul\":3474:3803   */\n      swap3\n      swap2\n      pop\n      pop\n      jump\t// out\n        /* \"#utility.yul\":3809:3978   */\n    tag_125:\n        /* \"#utility.yul\":3893:3904   */\n      0x00\n        /* \"#utility.yul\":3927:3933   */\n      dup3\n        /* \"#utility.yul\":3922:3925   */\n      dup3\n        /* \"#utility.yul\":3915:3934   */\n      mstore\n        /* \"#utility.yul\":3967:3971   */\n      0x20\n        /* \"#utility.yul\":3962:3965   */\n      dup3\n        /* \"#utility.yul\":3958:3972   */\n      add\n        /* \"#utility.yul\":3943:3972   */\n      swap1\n      pop\n        /* \"#utility.yul\":3809:3978   */\n      swap3\n      swap2\n      pop\n      pop\n      jump\t// out\n        /* \"#utility.yul\":3984:4164   */\n    tag_126:\n        /* \"#utility.yul\":4124:4156   */\n      0x4f6e6c79206f776e65722063616e20637265617465207061796d656e74730000\n        /* \"#utility.yul\":4120:4121   */\n      0x00\n        /* \"#utility.yul\":4112:4118   */\n      dup3\n        /* \"#utility.yul\":4108:4122   */\n      add\n        /* \"#utility.yul\":4101:4157   */\n      mstore\n        /* \"#utility.yul\":3984:4164   */\n      pop\n      jump\t// out\n        /* \"#utility.yul\":4170:4536   */\n    tag_127:\n        /* \"#utility.yul\":4312:4315   */\n      0x00\n        /* \"#utility.yul\":4333:4400   */\n      tag_199\n        /* \"#utility.yul\":4397:4399   */\n      0x1e\n        /* \"#utility.yul\":4392:4395   */\n      dup4\n        /* \"#utility.yul\":4333:4400   */\n      tag_125\n      jump\t// in\n    tag_199:\n        /* \"#utility.yul\":4326:4400   */\n      swap2\n      pop\n        /* \"#utility.yul\":4409:4502   */\n      tag_200\n        /* \"#utility.yul\":4498:4501   */\n      dup3\n        /* \"#utility.yul\":4409:4502   */\n      tag_126\n      jump\t// in\n    tag_200:\n        /* \"#utility.yul\":4527:4529   */\n      0x20\n        /* \"#utility.yul\":4522:4525   */\n      dup3\n        /* \"#utility.yul\":4518:4530   */\n      add\n        /* \"#utility.yul\":4511:4530   */\n      swap1\n      pop\n        /* \"#utility.yul\":4170:4536   */\n      swap2\n      swap1\n      pop\n      jump\t// out\n        /* \"#utility.yul\":4542:4961   */\n    tag_42:\n        /* \"#utility.yul\":4708:4712   */\n      0x00\n        /* \"#utility.yul\":4746:4748   */\n      0x20\n        /* \"#utility.yul\":4735:4744   */\n      dup3\n        /* \"#utility.yul\":4731:4749   */\n      add\n        /* \"#utility.yul\":4723:4749   */\n      swap1\n      pop\n        /* \"#utility.yul\":4795:4804   */\n      dup2\n        /* \"#utility.yul\":4789:4793   */\n      dup2\n        /* \"#utility.yul\":4785:4805   */\n      sub\n        /* \"#utility.yul\":4781:4782   */\n      0x00\n        /* \"#utility.yul\":4770:4779   */\n      dup4\n        /* \"#utility.yul\":4766:4783   */\n      add\n        /* \"#utility.yul\":4759:4806   */\n      mstore\n        /* \"#utility.yul\":4823:4954   */\n      tag_202\n        /* \"#utility.yul\":4949:4953   */\n      dup2\n        /* \"#utility.yul\":4823:4954   */\n      tag_127\n      jump\t// in\n    tag_202:\n        /* \"#utility.yul\":4815:4954   */\n      swap1\n      pop\n        /* \"#utility.yul\":4542:4961   */\n      swap2\n      swap1\n      pop\n      jump\t// out\n        /* \"#utility.yul\":4967:5142   */\n    tag_128:\n        /* \"#utility.yul\":5107:5134   */\n      0x5061796d656e7420616c72656164792070726f63657373656400000000000000\n        /* \"#utility.yul\":5103:5104   */\n      0x00\n        /* \"#utility.yul\":5095:5101   */\n      dup3\n        /* \"#utility.yul\":5091:5105   */\n      add\n        /* \"#utility.yul\":5084:5135   */\n      mstore\n        /* \"#utility.yul\":4967:5142   */\n      pop\n      jump\t// out\n        /* \"#utility.yul\":5148:5514   */\n    tag_129:\n        /* \"#utility.yul\":5290:5293   */\n      0x00\n        /* \"#utility.yul\":5311:5378   */\n      tag_205\n        /* \"#utility.yul\":5375:5377   */\n      0x19\n        /* \"#utility.yul\":5370:5373   */\n      dup4\n        /* \"#utility.yul\":5311:5378   */\n      tag_125\n      jump\t// in\n    tag_205:\n        /* \"#utility.yul\":5304:5378   */\n      swap2\n      pop\n        /* \"#utility.yul\":5387:5480   */\n      tag_206\n        /* \"#utility.yul\":5476:5479   */\n      dup3\n        /* \"#utility.yul\":5387:5480   */\n      tag_128\n      jump\t// in\n    tag_206:\n        /* \"#utility.yul\":5505:5507   */\n      0x20\n        /* \"#utility.yul\":5500:5503   */\n      dup3\n        /* \"#utility.yul\":5496:5508   */\n      add\n        /* \"#utility.yul\":5489:5508   */\n      swap1\n      pop\n        /* \"#utility.yul\":5148:5514   */\n      swap2\n      swap1\n      pop\n      jump\t// out\n        /* \"#utility.yul\":5520:5939   */\n    tag_45:\n        /* \"#utility.yul\":5686:5690   */\n      0x00\n        /* \"#utility.yul\":5724:5726   */\n      0x20\n        /* \"#utility.yul\":5713:5722   */\n      dup3\n        /* \"#utility.yul\":5709:5727   */\n      add\n        /* \"#utility.yul\":5701:5727   */\n      swap1\n      pop\n        /* \"#utility.yul\":5773:5782   */\n      dup2\n        /* \"#utility.yul\":5767:5771   */\n      dup2\n        /* \"#utility.yul\":5763:5783   */\n      sub\n        /* \"#utility.yul\":5759:5760   */\n      0x00\n        /* \"#utility.yul\":5748:5757   */\n      dup4\n        /* \"#utility.yul\":5744:5761   */\n      add\n        /* \"#utility.yul\":5737:5784   */\n      mstore\n        /* \"#utility.yul\":5801:5932   */\n      tag_208\n        /* \"#utility.yul\":5927:5931   */\n      dup2\n        /* \"#utility.yul\":5801:5932   */\n      tag_129\n      jump\t// in\n    tag_208:\n        /* \"#utility.yul\":5793:5932   */\n      swap1\n      pop\n        /* \"#utility.yul\":5520:5939   */\n      swap2\n      swap1\n      pop\n      jump\t// out\n        /* \"#utility.yul\":5945:6063   */\n    tag_130:\n        /* \"#utility.yul\":6032:6056   */\n      tag_210\n        /* \"#utility.yul\":6050:6055   */\n      dup2\n        /* \"#utility.yul\":6032:6056   */\n      tag_113\n      jump\t// in\n    tag_210:\n        /* \"#utility.yul\":6027:6030   */\n      dup3\n        /* \"#utility.yul\":6020:6057   */\n      mstore\n        /* \"#utility.yul\":5945:6063   */\n      pop\n      pop\n      jump\t// out\n        /* \"#utility.yul\":6069:6401   */\n    tag_49:\n        /* \"#utility.yul\":6190:6194   */\n      0x00\n        /* \"#utility.yul\":6228:6230   */\n      0x40\n        /* \"#utility.yul\":6217:6226   */\n      dup3\n        /* \"#utility.yul\":6213:6231   */\n      add\n        /* \"#utility.yul\":6205:6231   */\n      swap1\n      pop\n        /* \"#utility.yul\":6241:6312   */\n      tag_212\n        /* \"#utility.yul\":6309:6310   */\n      0x00\n        /* \"#utility.yul\":6298:6307   */\n      dup4\n        /* \"#utility.yul\":6294:6311   */\n      add\n        /* \"#utility.yul\":6285:6291   */\n      dup6\n        /* \"#utility.yul\":6241:6312   */\n      tag_118\n      jump\t// in\n    tag_212:\n        /* \"#utility.yul\":6322:6394   */\n      tag_213\n        /* \"#utility.yul\":6390:6392   */\n      0x20\n        /* \"#utility.yul\":6379:6388   */\n      dup4\n        /* \"#utility.yul\":6375:6393   */\n      add\n        /* \"#utility.yul\":6366:6372   */\n      dup5\n        /* \"#utility.yul\":6322:6394   */\n      tag_130\n      jump\t// in\n    tag_213:\n        /* \"#utility.yul\":6069:6401   */\n      swap4\n      swap3\n      pop\n      pop\n      pop\n      jump\t// out\n        /* \"#utility.yul\":6407:6505   */\n    tag_131:\n        /* \"#utility.yul\":6458:6464   */\n      0x00\n        /* \"#utility.yul\":6492:6497   */\n      dup2\n        /* \"#utility.yul\":6486:6498   */\n      mload\n        /* \"#utility.yul\":6476:6498   */\n      swap1\n      pop\n        /* \"#utility.yul\":6407:6505   */\n      swap2\n      swap1\n      pop\n      jump\t// out\n        /* \"#utility.yul\":6511:6658   */\n    tag_132:\n        /* \"#utility.yul\":6612:6623   */\n      0x00\n        /* \"#utility.yul\":6649:6652   */\n      dup2\n        /* \"#utility.yul\":6634:6652   */\n      swap1\n      pop\n        /* \"#utility.yul\":6511:6658   */\n      swap3\n      swap2\n      pop\n      pop\n      jump\t// out\n        /* \"#utility.yul\":6664:6910   */\n    tag_133:\n        /* \"#utility.yul\":6745:6746   */\n      0x00\n        /* \"#utility.yul\":6755:6868   */\n    tag_217:\n        /* \"#utility.yul\":6769:6775   */\n      dup4\n        /* \"#utility.yul\":6766:6767   */\n      dup2\n        /* \"#utility.yul\":6763:6776   */\n      lt\n        /* \"#utility.yul\":6755:6868   */\n      iszero\n      tag_219\n      jumpi\n        /* \"#utility.yul\":6854:6855   */\n      dup1\n        /* \"#utility.yul\":6849:6852   */\n      dup3\n        /* \"#utility.yul\":6845:6856   */\n      add\n        /* \"#utility.yul\":6839:6857   */\n      mload\n        /* \"#utility.yul\":6835:6836   */\n      dup2\n        /* \"#utility.yul\":6830:6833   */\n      dup5\n        /* \"#utility.yul\":6826:6837   */\n      add\n        /* \"#utility.yul\":6819:6858   */\n      mstore\n        /* \"#utility.yul\":6791:6793   */\n      0x20\n        /* \"#utility.yul\":6788:6789   */\n      dup2\n        /* \"#utility.yul\":6784:6794   */\n      add\n        /* \"#utility.yul\":6779:6794   */\n      swap1\n      pop\n        /* \"#utility.yul\":6755:6868   */\n      jump(tag_217)\n    tag_219:\n        /* \"#utility.yul\":6902:6903   */\n      0x00\n        /* \"#utility.yul\":6893:6899   */\n      dup5\n        /* \"#utility.yul\":6888:6891   */\n      dup5\n        /* \"#utility.yul\":6884:6900   */\n      add\n        /* \"#utility.yul\":6877:6904   */\n      mstore\n        /* \"#utility.yul\":6726:6910   */\n      pop\n        /* \"#utility.yul\":6664:6910   */\n      pop\n      pop\n      pop\n      jump\t// out\n        /* \"#utility.yul\":6916:7302   */\n    tag_134:\n        /* \"#utility.yul\":7020:7023   */\n      0x00\n        /* \"#utility.yul\":7048:7086   */\n      tag_221\n        /* \"#utility.yul\":7080:7085   */\n      dup3\n        /* \"#utility.yul\":7048:7086   */\n      tag_131\n      jump\t// in\n    tag_221:\n        /* \"#utility.yul\":7102:7190   */\n      tag_222\n        /* \"#utility.yul\":7183:7189   */\n      dup2\n        /* \"#utility.yul\":7178:7181   */\n      dup6\n        /* \"#utility.yul\":7102:7190   */\n      tag_132\n      jump\t// in\n    tag_222:\n        /* \"#utility.yul\":7095:7190   */\n      swap4\n      pop\n        /* \"#utility.yul\":7199:7264   */\n      tag_223\n        /* \"#utility.yul\":7257:7263   */\n      dup2\n        /* \"#utility.yul\":7252:7255   */\n      dup6\n        /* \"#utility.yul\":7245:7249   */\n      0x20\n        /* \"#utility.yul\":7238:7243   */\n      dup7\n        /* \"#utility.yul\":7234:7250   */\n      add\n        /* \"#utility.yul\":7199:7264   */\n      tag_133\n      jump\t// in\n    tag_223:\n        /* \"#utility.yul\":7289:7295   */\n      dup1\n        /* \"#utility.yul\":7284:7287   */\n      dup5\n        /* \"#utility.yul\":7280:7296   */\n      add\n        /* \"#utility.yul\":7273:7296   */\n      swap2\n      pop\n        /* \"#utility.yul\":7024:7302   */\n      pop\n        /* \"#utility.yul\":6916:7302   */\n      swap3\n      swap2\n      pop\n      pop\n      jump\t// out\n        /* \"#utility.yul\":7308:7579   */\n    tag_51:\n        /* \"#utility.yul\":7438:7441   */\n      0x00\n        /* \"#utility.yul\":7460:7553   */\n      tag_225\n        /* \"#utility.yul\":7549:7552   */\n      dup3\n        /* \"#utility.yul\":7540:7546   */\n      dup5\n        /* \"#utility.yul\":7460:7553   */\n      tag_134\n      jump\t// in\n    tag_225:\n        /* \"#utility.yul\":7453:7553   */\n      swap2\n      pop\n        /* \"#utility.yul\":7570:7573   */\n      dup2\n        /* \"#utility.yul\":7563:7573   */\n      swap1\n      pop\n        /* \"#utility.yul\":7308:7579   */\n      swap3\n      swap2\n      pop\n      pop\n      jump\t// out\n        /* \"#utility.yul\":7585:7765   */\n    tag_135:\n        /* \"#utility.yul\":7633:7710   */\n      0x4e487b7100000000000000000000000000000000000000000000000000000000\n        /* \"#utility.yul\":7630:7631   */\n      0x00\n        /* \"#utility.yul\":7623:7711   */\n      mstore\n        /* \"#utility.yul\":7730:7734   */\n      0x11\n        /* \"#utility.yul\":7727:7728   */\n      0x04\n        /* \"#utility.yul\":7720:7735   */\n      mstore\n        /* \"#utility.yul\":7754:7758   */\n      0x24\n        /* \"#utility.yul\":7751:7752   */\n      0x00\n        /* \"#utility.yul\":7744:7759   */\n      revert\n        /* \"#utility.yul\":7771:7965   */\n    tag_59:\n        /* \"#utility.yul\":7811:7815   */\n      0x00\n        /* \"#utility.yul\":7831:7851   */\n      tag_228\n        /* \"#utility.yul\":7849:7850   */\n      dup3\n        /* \"#utility.yul\":7831:7851   */\n      tag_119\n      jump\t// in\n    tag_228:\n        /* \"#utility.yul\":7826:7851   */\n      swap2\n      pop\n        /* \"#utility.yul\":7865:7885   */\n      tag_229\n        /* \"#utility.yul\":7883:7884   */\n      dup4\n        /* \"#utility.yul\":7865:7885   */\n      tag_119\n      jump\t// in\n    tag_229:\n        /* \"#utility.yul\":7860:7885   */\n      swap3\n      pop\n        /* \"#utility.yul\":7909:7910   */\n      dup3\n        /* \"#utility.yul\":7906:7907   */\n      dup3\n        /* \"#utility.yul\":7902:7911   */\n      sub\n        /* \"#utility.yul\":7894:7911   */\n      swap1\n      pop\n        /* \"#utility.yul\":7933:7934   */\n      dup2\n        /* \"#utility.yul\":7927:7931   */\n      dup2\n        /* \"#utility.yul\":7924:7935   */\n      gt\n        /* \"#utility.yul\":7921:7958   */\n      iszero\n      tag_230\n      jumpi\n        /* \"#utility.yul\":7938:7956   */\n      tag_231\n      tag_135\n      jump\t// in\n    tag_231:\n        /* \"#utility.yul\":7921:7958   */\n    tag_230:\n        /* \"#utility.yul\":7771:7965   */\n      swap3\n      swap2\n      pop\n      pop\n      jump\t// out\n        /* \"#utility.yul\":7971:8070   */\n    tag_136:\n        /* \"#utility.yul\":8023:8029   */\n      0x00\n        /* \"#utility.yul\":8057:8062   */\n      dup2\n        /* \"#utility.yul\":8051:8063   */\n      mload\n        /* \"#utility.yul\":8041:8063   */\n      swap1\n      pop\n        /* \"#utility.yul\":7971:8070   */\n      swap2\n      swap1\n      pop\n      jump\t// out\n        /* \"#utility.yul\":8076:8178   */\n    tag_137:\n        /* \"#utility.yul\":8117:8123   */\n      0x00\n        /* \"#utility.yul\":8168:8170   */\n      0x1f\n        /* \"#utility.yul\":8164:8171   */\n      not\n        /* \"#utility.yul\":8159:8161   */\n      0x1f\n        /* \"#utility.yul\":8152:8157   */\n      dup4\n        /* \"#utility.yul\":8148:8162   */\n      add\n        /* \"#utility.yul\":8144:8172   */\n      and\n        /* \"#utility.yul\":8134:8172   */\n      swap1\n      pop\n        /* \"#utility.yul\":8076:8178   */\n      swap2\n      swap1\n      pop\n      jump\t// out\n        /* \"#utility.yul\":8184:8561   */\n    tag_138:\n        /* \"#utility.yul\":8272:8275   */\n      0x00\n        /* \"#utility.yul\":8300:8339   */\n      tag_235\n        /* \"#utility.yul\":8333:8338   */\n      dup3\n        /* \"#utility.yul\":8300:8339   */\n      tag_136\n      jump\t// in\n    tag_235:\n        /* \"#utility.yul\":8355:8426   */\n      tag_236\n        /* \"#utility.yul\":8419:8425   */\n      dup2\n        /* \"#utility.yul\":8414:8417   */\n      dup6\n        /* \"#utility.yul\":8355:8426   */\n      tag_125\n      jump\t// in\n    tag_236:\n        /* \"#utility.yul\":8348:8426   */\n      swap4\n      pop\n        /* \"#utility.yul\":8435:8500   */\n      tag_237\n        /* \"#utility.yul\":8493:8499   */\n      dup2\n        /* \"#utility.yul\":8488:8491   */\n      dup6\n        /* \"#utility.yul\":8481:8485   */\n      0x20\n        /* \"#utility.yul\":8474:8479   */\n      dup7\n        /* \"#utility.yul\":8470:8486   */\n      add\n        /* \"#utility.yul\":8435:8500   */\n      tag_133\n      jump\t// in\n    tag_237:\n        /* \"#utility.yul\":8525:8554   */\n      tag_238\n        /* \"#utility.yul\":8547:8553   */\n      dup2\n        /* \"#utility.yul\":8525:8554   */\n      tag_137\n      jump\t// in\n    tag_238:\n        /* \"#utility.yul\":8520:8523   */\n      dup5\n        /* \"#utility.yul\":8516:8555   */\n      add\n        /* \"#utility.yul\":8509:8555   */\n      swap2\n      pop\n        /* \"#utility.yul\":8276:8561   */\n      pop\n        /* \"#utility.yul\":8184:8561   */\n      swap3\n      swap2\n      pop\n      pop\n      jump\t// out\n        /* \"#utility.yul\":8567:8880   */\n    tag_62:\n        /* \"#utility.yul\":8680:8684   */\n      0x00\n        /* \"#utility.yul\":8718:8720   */\n      0x20\n        /* \"#utility.yul\":8707:8716   */\n      dup3\n        /* \"#utility.yul\":8703:8721   */\n      add\n        /* \"#utility.yul\":8695:8721   */\n      swap1\n      pop\n        /* \"#utility.yul\":8767:8776   */\n      dup2\n        /* \"#utility.yul\":8761:8765   */\n      dup2\n        /* \"#utility.yul\":8757:8777   */\n      sub\n        /* \"#utility.yul\":8753:8754   */\n      0x00\n        /* \"#utility.yul\":8742:8751   */\n      dup4\n        /* \"#utility.yul\":8738:8755   */\n      add\n        /* \"#utility.yul\":8731:8778   */\n      mstore\n        /* \"#utility.yul\":8795:8873   */\n      tag_240\n        /* \"#utility.yul\":8868:8872   */\n      dup2\n        /* \"#utility.yul\":8859:8865   */\n      dup5\n        /* \"#utility.yul\":8795:8873   */\n      tag_138\n      jump\t// in\n    tag_240:\n        /* \"#utility.yul\":8787:8873   */\n      swap1\n      pop\n        /* \"#utility.yul\":8567:8880   */\n      swap3\n      swap2\n      pop\n      pop\n      jump\t// out\n        /* \"#utility.yul\":8886:9063   */\n    tag_139:\n        /* \"#utility.yul\":9026:9055   */\n      0x50726f787920696e697469616c697a6174696f6e206661696c65640000000000\n        /* \"#utility.yul\":9022:9023   */\n      0x00\n        /* \"#utility.yul\":9014:9020   */\n      dup3\n        /* \"#utility.yul\":9010:9024   */\n      add\n        /* \"#utility.yul\":9003:9056   */\n      mstore\n        /* \"#utility.yul\":8886:9063   */\n      pop\n      jump\t// out\n        /* \"#utility.yul\":9069:9435   */\n    tag_140:\n        /* \"#utility.yul\":9211:9214   */\n      0x00\n        /* \"#utility.yul\":9232:9299   */\n      tag_243\n        /* \"#utility.yul\":9296:9298   */\n      0x1b\n        /* \"#utility.yul\":9291:9294   */\n      dup4\n        /* \"#utility.yul\":9232:9299   */\n      tag_125\n      jump\t// in\n    tag_243:\n        /* \"#utility.yul\":9225:9299   */\n      swap2\n      pop\n        /* \"#utility.yul\":9308:9401   */\n      tag_244\n        /* \"#utility.yul\":9397:9400   */\n      dup3\n        /* \"#utility.yul\":9308:9401   */\n      tag_139\n      jump\t// in\n    tag_244:\n        /* \"#utility.yul\":9426:9428   */\n      0x20\n        /* \"#utility.yul\":9421:9424   */\n      dup3\n        /* \"#utility.yul\":9417:9429   */\n      add\n        /* \"#utility.yul\":9410:9429   */\n      swap1\n      pop\n        /* \"#utility.yul\":9069:9435   */\n      swap2\n      swap1\n      pop\n      jump\t// out\n        /* \"#utility.yul\":9441:9860   */\n    tag_65:\n        /* \"#utility.yul\":9607:9611   */\n      0x00\n        /* \"#utility.yul\":9645:9647   */\n      0x20\n        /* \"#utility.yul\":9634:9643   */\n      dup3\n        /* \"#utility.yul\":9630:9648   */\n      add\n        /* \"#utility.yul\":9622:9648   */\n      swap1\n      pop\n        /* \"#utility.yul\":9694:9703   */\n      dup2\n        /* \"#utility.yul\":9688:9692   */\n      dup2\n        /* \"#utility.yul\":9684:9704   */\n      sub\n        /* \"#utility.yul\":9680:9681   */\n      0x00\n        /* \"#utility.yul\":9669:9678   */\n      dup4\n        /* \"#utility.yul\":9665:9682   */\n      add\n        /* \"#utility.yul\":9658:9705   */\n      mstore\n        /* \"#utility.yul\":9722:9853   */\n      tag_246\n        /* \"#utility.yul\":9848:9852   */\n      dup2\n        /* \"#utility.yul\":9722:9853   */\n      tag_140\n      jump\t// in\n    tag_246:\n        /* \"#utility.yul\":9714:9853   */\n      swap1\n      pop\n        /* \"#utility.yul\":9441:9860   */\n      swap2\n      swap1\n      pop\n      jump\t// out\n        /* \"#utility.yul\":9866:10039   */\n    tag_141:\n        /* \"#utility.yul\":10006:10031   */\n      0x4f6e6c79206f776e65722063616e207769746864726177000000000000000000\n        /* \"#utility.yul\":10002:10003   */\n      0x00\n        /* \"#utility.yul\":9994:10000   */\n      dup3\n        /* \"#utility.yul\":9990:10004   */\n      add\n        /* \"#utility.yul\":9983:10032   */\n      mstore\n        /* \"#utility.yul\":9866:10039   */\n      pop\n      jump\t// out\n        /* \"#utility.yul\":10045:10411   */\n    tag_142:\n        /* \"#utility.yul\":10187:10190   */\n      0x00\n        /* \"#utility.yul\":10208:10275   */\n      tag_249\n        /* \"#utility.yul\":10272:10274   */\n      0x17\n        /* \"#utility.yul\":10267:10270   */\n      dup4\n        /* \"#utility.yul\":10208:10275   */\n      tag_125\n      jump\t// in\n    tag_249:\n        /* \"#utility.yul\":10201:10275   */\n      swap2\n      pop\n        /* \"#utility.yul\":10284:10377   */\n      tag_250\n        /* \"#utility.yul\":10373:10376   */\n      dup3\n        /* \"#utility.yul\":10284:10377   */\n      tag_141\n      jump\t// in\n    tag_250:\n        /* \"#utility.yul\":10402:10404   */\n      0x20\n        /* \"#utility.yul\":10397:10400   */\n      dup3\n        /* \"#utility.yul\":10393:10405   */\n      add\n        /* \"#utility.yul\":10386:10405   */\n      swap1\n      pop\n        /* \"#utility.yul\":10045:10411   */\n      swap2\n      swap1\n      pop\n      jump\t// out\n        /* \"#utility.yul\":10417:10836   */\n    tag_69:\n        /* \"#utility.yul\":10583:10587   */\n      0x00\n        /* \"#utility.yul\":10621:10623   */\n      0x20\n        /* \"#utility.yul\":10610:10619   */\n      dup3\n        /* \"#utility.yul\":10606:10624   */\n      add\n        /* \"#utility.yul\":10598:10624   */\n      swap1\n      pop\n        /* \"#utility.yul\":10670:10679   */\n      dup2\n        /* \"#utility.yul\":10664:10668   */\n      dup2\n        /* \"#utility.yul\":10660:10680   */\n      sub\n        /* \"#utility.yul\":10656:10657   */\n      0x00\n        /* \"#utility.yul\":10645:10654   */\n      dup4\n        /* \"#utility.yul\":10641:10658   */\n      add\n        /* \"#utility.yul\":10634:10681   */\n      mstore\n        /* \"#utility.yul\":10698:10829   */\n      tag_252\n        /* \"#utility.yul\":10824:10828   */\n      dup2\n        /* \"#utility.yul\":10698:10829   */\n      tag_142\n      jump\t// in\n    tag_252:\n        /* \"#utility.yul\":10690:10829   */\n      swap1\n      pop\n        /* \"#utility.yul\":10417:10836   */\n      swap2\n      swap1\n      pop\n      jump\t// out\n        /* \"#utility.yul\":10842:11174   */\n    tag_71:\n        /* \"#utility.yul\":10963:10967   */\n      0x00\n        /* \"#utility.yul\":11001:11003   */\n      0x40\n        /* \"#utility.yul\":10990:10999   */\n      dup3\n        /* \"#utility.yul\":10986:11004   */\n      add\n        /* \"#utility.yul\":10978:11004   */\n      swap1\n      pop\n        /* \"#utility.yul\":11014:11085   */\n      tag_254\n        /* \"#utility.yul\":11082:11083   */\n      0x00\n        /* \"#utility.yul\":11071:11080   */\n      dup4\n        /* \"#utility.yul\":11067:11084   */\n      add\n        /* \"#utility.yul\":11058:11064   */\n      dup6\n        /* \"#utility.yul\":11014:11085   */\n      tag_118\n      jump\t// in\n    tag_254:\n        /* \"#utility.yul\":11095:11167   */\n      tag_255\n        /* \"#utility.yul\":11163:11165   */\n      0x20\n        /* \"#utility.yul\":11152:11161   */\n      dup4\n        /* \"#utility.yul\":11148:11166   */\n      add\n        /* \"#utility.yul\":11139:11145   */\n      dup5\n        /* \"#utility.yul\":11095:11167   */\n      tag_120\n      jump\t// in\n    tag_255:\n        /* \"#utility.yul\":10842:11174   */\n      swap4\n      swap3\n      pop\n      pop\n      pop\n      jump\t// out\n        /* \"#utility.yul\":11180:11296   */\n    tag_143:\n        /* \"#utility.yul\":11250:11271   */\n      tag_257\n        /* \"#utility.yul\":11265:11270   */\n      dup2\n        /* \"#utility.yul\":11250:11271   */\n      tag_121\n      jump\t// in\n    tag_257:\n        /* \"#utility.yul\":11243:11248   */\n      dup2\n        /* \"#utility.yul\":11240:11272   */\n      eq\n        /* \"#utility.yul\":11230:11290   */\n      tag_258\n      jumpi\n        /* \"#utility.yul\":11286:11287   */\n      0x00\n        /* \"#utility.yul\":11283:11284   */\n      dup1\n        /* \"#utility.yul\":11276:11288   */\n      revert\n        /* \"#utility.yul\":11230:11290   */\n    tag_258:\n        /* \"#utility.yul\":11180:11296   */\n      pop\n      jump\t// out\n        /* \"#utility.yul\":11302:11439   */\n    tag_144:\n        /* \"#utility.yul\":11356:11361   */\n      0x00\n        /* \"#utility.yul\":11387:11393   */\n      dup2\n        /* \"#utility.yul\":11381:11394   */\n      mload\n        /* \"#utility.yul\":11372:11394   */\n      swap1\n      pop\n        /* \"#utility.yul\":11403:11433   */\n      tag_260\n        /* \"#utility.yul\":11427:11432   */\n      dup2\n        /* \"#utility.yul\":11403:11433   */\n      tag_143\n      jump\t// in\n    tag_260:\n        /* \"#utility.yul\":11302:11439   */\n      swap3\n      swap2\n      pop\n      pop\n      jump\t// out\n        /* \"#utility.yul\":11445:11790   */\n    tag_75:\n        /* \"#utility.yul\":11512:11518   */\n      0x00\n        /* \"#utility.yul\":11561:11563   */\n      0x20\n        /* \"#utility.yul\":11549:11558   */\n      dup3\n        /* \"#utility.yul\":11540:11547   */\n      dup5\n        /* \"#utility.yul\":11536:11559   */\n      sub\n        /* \"#utility.yul\":11532:11564   */\n      slt\n        /* \"#utility.yul\":11529:11648   */\n      iszero\n      tag_262\n      jumpi\n        /* \"#utility.yul\":11567:11646   */\n      tag_263\n      tag_111\n      jump\t// in\n    tag_263:\n        /* \"#utility.yul\":11529:11648   */\n    tag_262:\n        /* \"#utility.yul\":11687:11688   */\n      0x00\n        /* \"#utility.yul\":11712:11773   */\n      tag_264\n        /* \"#utility.yul\":11765:11772   */\n      dup5\n        /* \"#utility.yul\":11756:11762   */\n      dup3\n        /* \"#utility.yul\":11745:11754   */\n      dup6\n        /* \"#utility.yul\":11741:11763   */\n      add\n        /* \"#utility.yul\":11712:11773   */\n      tag_144\n      jump\t// in\n    tag_264:\n        /* \"#utility.yul\":11702:11773   */\n      swap2\n      pop\n        /* \"#utility.yul\":11658:11783   */\n      pop\n        /* \"#utility.yul\":11445:11790   */\n      swap3\n      swap2\n      pop\n      pop\n      jump\t// out\n        /* \"#utility.yul\":11796:11963   */\n    tag_145:\n        /* \"#utility.yul\":11936:11955   */\n      0x5769746864726177616c206661696c6564000000000000000000000000000000\n        /* \"#utility.yul\":11932:11933   */\n      0x00\n        /* \"#utility.yul\":11924:11930   */\n      dup3\n        /* \"#utility.yul\":11920:11934   */\n      add\n        /* \"#utility.yul\":11913:11956   */\n      mstore\n        /* \"#utility.yul\":11796:11963   */\n      pop\n      jump\t// out\n        /* \"#utility.yul\":11969:12335   */\n    tag_146:\n        /* \"#utility.yul\":12111:12114   */\n      0x00\n        /* \"#utility.yul\":12132:12199   */\n      tag_267\n        /* \"#utility.yul\":12196:12198   */\n      0x11\n        /* \"#utility.yul\":12191:12194   */\n      dup4\n        /* \"#utility.yul\":12132:12199   */\n      tag_125\n      jump\t// in\n    tag_267:\n        /* \"#utility.yul\":12125:12199   */\n      swap2\n      pop\n        /* \"#utility.yul\":12208:12301   */\n      tag_268\n        /* \"#utility.yul\":12297:12300   */\n      dup3\n        /* \"#utility.yul\":12208:12301   */\n      tag_145\n      jump\t// in\n    tag_268:\n        /* \"#utility.yul\":12326:12328   */\n      0x20\n        /* \"#utility.yul\":12321:12324   */\n      dup3\n        /* \"#utility.yul\":12317:12329   */\n      add\n        /* \"#utility.yul\":12310:12329   */\n      swap1\n      pop\n        /* \"#utility.yul\":11969:12335   */\n      swap2\n      swap1\n      pop\n      jump\t// out\n        /* \"#utility.yul\":12341:12760   */\n    tag_78:\n        /* \"#utility.yul\":12507:12511   */\n      0x00\n        /* \"#utility.yul\":12545:12547   */\n      0x20\n        /* \"#utility.yul\":12534:12543   */\n      dup3\n        /* \"#utility.yul\":12530:12548   */\n      add\n        /* \"#utility.yul\":12522:12548   */\n      swap1\n      pop\n        /* \"#utility.yul\":12594:12603   */\n      dup2\n        /* \"#utility.yul\":12588:12592   */\n      dup2\n        /* \"#utility.yul\":12584:12604   */\n      sub\n        /* \"#utility.yul\":12580:12581   */\n      0x00\n        /* \"#utility.yul\":12569:12578   */\n      dup4\n        /* \"#utility.yul\":12565:12582   */\n      add\n        /* \"#utility.yul\":12558:12605   */\n      mstore\n        /* \"#utility.yul\":12622:12753   */\n      tag_270\n        /* \"#utility.yul\":12748:12752   */\n      dup2\n        /* \"#utility.yul\":12622:12753   */\n      tag_146\n      jump\t// in\n    tag_270:\n        /* \"#utility.yul\":12614:12753   */\n      swap1\n      pop\n        /* \"#utility.yul\":12341:12760   */\n      swap2\n      swap1\n      pop\n      jump\t// out\n        /* \"#utility.yul\":12766:12948   */\n    tag_147:\n        /* \"#utility.yul\":12906:12940   */\n      0x4f6e6c792070726f78792063616e206d61726b2061732070726f636573736564\n        /* \"#utility.yul\":12902:12903   */\n      0x00\n        /* \"#utility.yul\":12894:12900   */\n      dup3\n        /* \"#utility.yul\":12890:12904   */\n      add\n        /* \"#utility.yul\":12883:12941   */\n      mstore\n        /* \"#utility.yul\":12766:12948   */\n      pop\n      jump\t// out\n        /* \"#utility.yul\":12954:13320   */\n    tag_148:\n        /* \"#utility.yul\":13096:13099   */\n      0x00\n        /* \"#utility.yul\":13117:13184   */\n      tag_273\n        /* \"#utility.yul\":13181:13183   */\n      0x20\n        /* \"#utility.yul\":13176:13179   */\n      dup4\n        /* \"#utility.yul\":13117:13184   */\n      tag_125\n      jump\t// in\n    tag_273:\n        /* \"#utility.yul\":13110:13184   */\n      swap2\n      pop\n        /* \"#utility.yul\":13193:13286   */\n      tag_274\n        /* \"#utility.yul\":13282:13285   */\n      dup3\n        /* \"#utility.yul\":13193:13286   */\n      tag_147\n      jump\t// in\n    tag_274:\n        /* \"#utility.yul\":13311:13313   */\n      0x20\n        /* \"#utility.yul\":13306:13309   */\n      dup3\n        /* \"#utility.yul\":13302:13314   */\n      add\n        /* \"#utility.yul\":13295:13314   */\n      swap1\n      pop\n        /* \"#utility.yul\":12954:13320   */\n      swap2\n      swap1\n      pop\n      jump\t// out\n        /* \"#utility.yul\":13326:13745   */\n    tag_82:\n        /* \"#utility.yul\":13492:13496   */\n      0x00\n        /* \"#utility.yul\":13530:13532   */\n      0x20\n        /* \"#utility.yul\":13519:13528   */\n      dup3\n        /* \"#utility.yul\":13515:13533   */\n      add\n        /* \"#utility.yul\":13507:13533   */\n      swap1\n      pop\n        /* \"#utility.yul\":13579:13588   */\n      dup2\n        /* \"#utility.yul\":13573:13577   */\n      dup2\n        /* \"#utility.yul\":13569:13589   */\n      sub\n        /* \"#utility.yul\":13565:13566   */\n      0x00\n        /* \"#utility.yul\":13554:13563   */\n      dup4\n        /* \"#utility.yul\":13550:13567   */\n      add\n        /* \"#utility.yul\":13543:13590   */\n      mstore\n        /* \"#utility.yul\":13607:13738   */\n      tag_276\n        /* \"#utility.yul\":13733:13737   */\n      dup2\n        /* \"#utility.yul\":13607:13738   */\n      tag_148\n      jump\t// in\n    tag_276:\n        /* \"#utility.yul\":13599:13738   */\n      swap1\n      pop\n        /* \"#utility.yul\":13326:13745   */\n      swap2\n      swap1\n      pop\n      jump\t// out\n        /* \"#utility.yul\":13751:13931   */\n    tag_91:\n        /* \"#utility.yul\":13799:13876   */\n      0x4e487b7100000000000000000000000000000000000000000000000000000000\n        /* \"#utility.yul\":13796:13797   */\n      0x00\n        /* \"#utility.yul\":13789:13877   */\n      mstore\n        /* \"#utility.yul\":13896:13900   */\n      0x41\n        /* \"#utility.yul\":13893:13894   */\n      0x04\n        /* \"#utility.yul\":13886:13901   */\n      mstore\n        /* \"#utility.yul\":13920:13924   */\n      0x24\n        /* \"#utility.yul\":13917:13918   */\n      0x00\n        /* \"#utility.yul\":13910:13925   */\n      revert\n        /* \"#utility.yul\":13937:14128   */\n    tag_97:\n        /* \"#utility.yul\":13977:13980   */\n      0x00\n        /* \"#utility.yul\":13996:14016   */\n      tag_279\n        /* \"#utility.yul\":14014:14015   */\n      dup3\n        /* \"#utility.yul\":13996:14016   */\n      tag_119\n      jump\t// in\n    tag_279:\n        /* \"#utility.yul\":13991:14016   */\n      swap2\n      pop\n        /* \"#utility.yul\":14030:14050   */\n      tag_280\n        /* \"#utility.yul\":14048:14049   */\n      dup4\n        /* \"#utility.yul\":14030:14050   */\n      tag_119\n      jump\t// in\n    tag_280:\n        /* \"#utility.yul\":14025:14050   */\n      swap3\n      pop\n        /* \"#utility.yul\":14073:14074   */\n      dup3\n        /* \"#utility.yul\":14070:14071   */\n      dup3\n        /* \"#utility.yul\":14066:14075   */\n      add\n        /* \"#utility.yul\":14059:14075   */\n      swap1\n      pop\n        /* \"#utility.yul\":14094:14097   */\n      dup1\n        /* \"#utility.yul\":14091:14092   */\n      dup3\n        /* \"#utility.yul\":14088:14098   */\n      gt\n        /* \"#utility.yul\":14085:14121   */\n      iszero\n      tag_281\n      jumpi\n        /* \"#utility.yul\":14101:14119   */\n      tag_282\n      tag_135\n      jump\t// in\n    tag_282:\n        /* \"#utility.yul\":14085:14121   */\n    tag_281:\n        /* \"#utility.yul\":13937:14128   */\n      swap3\n      swap2\n      pop\n      pop\n      jump\t// out\n        /* \"#utility.yul\":14134:14314   */\n    tag_100:\n        /* \"#utility.yul\":14182:14259   */\n      0x4e487b7100000000000000000000000000000000000000000000000000000000\n        /* \"#utility.yul\":14179:14180   */\n      0x00\n        /* \"#utility.yul\":14172:14260   */\n      mstore\n        /* \"#utility.yul\":14279:14283   */\n      0x32\n        /* \"#utility.yul\":14276:14277   */\n      0x04\n        /* \"#utility.yul\":14269:14284   */\n      mstore\n        /* \"#utility.yul\":14303:14307   */\n      0x24\n        /* \"#utility.yul\":14300:14301   */\n      0x00\n        /* \"#utility.yul\":14293:14308   */\n      revert\n        /* \"#utility.yul\":14320:14553   */\n    tag_104:\n        /* \"#utility.yul\":14359:14362   */\n      0x00\n        /* \"#utility.yul\":14382:14406   */\n      tag_285\n        /* \"#utility.yul\":14400:14405   */\n      dup3\n        /* \"#utility.yul\":14382:14406   */\n      tag_119\n      jump\t// in\n    tag_285:\n        /* \"#utility.yul\":14373:14406   */\n      swap2\n      pop\n        /* \"#utility.yul\":14428:14494   */\n      0xffffffffffffffffffffffffffffffffffffffffffffffffffffffffffffffff\n        /* \"#utility.yul\":14421:14426   */\n      dup3\n        /* \"#utility.yul\":14418:14495   */\n      sub\n        /* \"#utility.yul\":14415:14518   */\n      tag_286\n      jumpi\n        /* \"#utility.yul\":14498:14516   */\n      tag_287\n      tag_135\n      jump\t// in\n    tag_287:\n        /* \"#utility.yul\":14415:14518   */\n    tag_286:\n        /* \"#utility.yul\":14545:14546   */\n      0x01\n        /* \"#utility.yul\":14538:14543   */\n      dup3\n        /* \"#utility.yul\":14534:14547   */\n      add\n        /* \"#utility.yul\":14527:14547   */\n      swap1\n      pop\n        /* \"#utility.yul\":14320:14553   */\n      swap2\n      swap1\n      pop\n      jump\t// out\n        /* \"#utility.yul\":14559:14891   */\n    tag_108:\n        /* \"#utility.yul\":14680:14684   */\n      0x00\n        /* \"#utility.yul\":14718:14720   */\n      0x40\n        /* \"#utility.yul\":14707:14716   */\n      dup3\n        /* \"#utility.yul\":14703:14721   */\n      add\n        /* \"#utility.yul\":14695:14721   */\n      swap1\n      pop\n        /* \"#utility.yul\":14731:14802   */\n      tag_289\n        /* \"#utility.yul\":14799:14800   */\n      0x00\n        /* \"#utility.yul\":14788:14797   */\n      dup4\n        /* \"#utility.yul\":14784:14801   */\n      add\n        /* \"#utility.yul\":14775:14781   */\n      dup6\n        /* \"#utility.yul\":14731:14802   */\n      tag_120\n      jump\t// in\n    tag_289:\n        /* \"#utility.yul\":14812:14884   */\n      tag_290\n        /* \"#utility.yul\":14880:14882   */\n      0x20\n        /* \"#utility.yul\":14869:14878   */\n      dup4\n        /* \"#utility.yul\":14865:14883   */\n      add\n        /* \"#utility.yul\":14856:14862   */\n      dup5\n        /* \"#utility.yul\":14812:14884   */\n      tag_120\n      jump\t// in\n    tag_290:\n        /* \"#utility.yul\":14559:14891   */\n      swap4\n      swap3\n      pop\n      pop\n      pop\n      jump\t// out\n\n    auxdata: 0xa2646970667358221220bb844d101ed6515507b7849db8b661ba627b9cc17d88fc010136a910e2b0129564736f6c63430008140033\n}\n",
				"bytecode": {
					"linkReferences": {},
					"object": "60806040523480156200001157600080fd5b50604051620014a9380380620014a983398181016040528101906200003791906200016b565b336000806101000a81548173ffffffffffffffffffffffffffffffffffffffff021916908373ffffffffffffffffffffffffffffffffffffffff16021790555081600160006101000a81548173ffffffffffffffffffffffffffffffffffffffff021916908373ffffffffffffffffffffffffffffffffffffffff16021790555080600260006101000a81548173ffffffffffffffffffffffffffffffffffffffff021916908373ffffffffffffffffffffffffffffffffffffffff1602179055505050620001b2565b600080fd5b600073ffffffffffffffffffffffffffffffffffffffff82169050919050565b6000620001338262000106565b9050919050565b620001458162000126565b81146200015157600080fd5b50565b60008151905062000165816200013a565b92915050565b6000806040838503121562000185576200018462000101565b5b6000620001958582860162000154565b9250506020620001a88582860162000154565b9150509250929050565b6112e780620001c26000396000f3fe608060405234801561001057600080fd5b506004361061007d5760003560e01c80635c60da1b1161005b5780635c60da1b14610101578063611509231461011f57806367074c211461013d5780638da5cb5b146101595761007d565b80630716326d146100825780632dc90865146100b55780633ea521ef146100e5575b600080fd5b61009c60048036038101906100979190610b4b565b610177565b6040516100ac9493929190610bed565b60405180910390f35b6100cf60048036038101906100ca9190610c5e565b6101d4565b6040516100dc9190610cb1565b60405180910390f35b6100ff60048036038101906100fa9190610ccc565b6105d8565b005b61010961076e565b6040516101169190610cb1565b60405180910390f35b610127610794565b6040516101349190610cb1565b60405180910390f35b61015760048036038101906101529190610b4b565b6107ba565b005b6101616108f4565b60405161016e9190610cb1565b60405180910390f35b60036020528060005260406000206000915090508060000160009054906101000a900473ffffffffffffffffffffffffffffffffffffffff16908060010154908060020154908060030160009054906101000a900460ff16905084565b60008060009054906101000a900473ffffffffffffffffffffffffffffffffffffffff1673ffffffffffffffffffffffffffffffffffffffff163373ffffffffffffffffffffffffffffffffffffffff1614610265576040517f08c379a000000000000000000000000000000000000000000000000000000000815260040161025c90610d56565b60405180910390fd5b6003600085815260200190815260200160002060030160009054906101000a900460ff16156102c9576040517f08c379a00000000000000000000000000000000000000000000000000000000081526004016102c090610dc2565b60405180910390fd5b60006102f7600260009054906101000a900473ffffffffffffffffffffffffffffffffffffffff1686610918565b905060405180608001604052808273ffffffffffffffffffffffffffffffffffffffff168152602001858152602001848152602001600015158152506003600087815260200190815260200160002060008201518160000160006101000a81548173ffffffffffffffffffffffffffffffffffffffff021916908373ffffffffffffffffffffffffffffffffffffffff160217905550602082015181600101556040820151816002015560608201518160030160006101000a81548160ff0219169083151502179055509050506000808273ffffffffffffffffffffffffffffffffffffffff16600160009054906101000a900473ffffffffffffffffffffffffffffffffffffffff1688604051602401610413929190610df1565b6040516020818303038152906040527fbe13f47c000000000000000000000000000000000000000000000000000000007bffffffffffffffffffffffffffffffffffffffffffffffffffffffff19166020820180517bffffffffffffffffffffffffffffffffffffffffffffffffffffffff838183161783525050505060405161049d9190610e8b565b6000604051808303816000865af19150503d80600081146104da576040519150601f19603f3d011682016040523d82523d6000602084013e6104df565b606091505b5091509150816105875760448151111561054c57600061050d8260048085516105089190610ed1565b61092e565b9050806040517f08c379a00000000000000000000000000000000000000000000000000000000081526004016105439190610f5a565b60405180910390fd5b6040517f08c379a000000000000000000000000000000000000000000000000000000000815260040161057e90610fc8565b60405180910390fd5b868373ffffffffffffffffffffffffffffffffffffffff167fcfaab0d6675a72a93c114f48dd85add1076be0c88545968759ef034da7ad146f60405160405180910390a38293505050509392505050565b60008054906101000a900473ffffffffffffffffffffffffffffffffffffffff1673ffffffffffffffffffffffffffffffffffffffff163373ffffffffffffffffffffffffffffffffffffffff1614610666576040517f08c379a000000000000000000000000000000000000000000000000000000000815260040161065d90611034565b60405180910390fd5b6000600160009054906101000a900473ffffffffffffffffffffffffffffffffffffffff1690508073ffffffffffffffffffffffffffffffffffffffff1663a9059cbb60008054906101000a900473ffffffffffffffffffffffffffffffffffffffff16846040518363ffffffff1660e01b81526004016106e8929190611054565b6020604051808303816000875af1158015610707573d6000803e3d6000fd5b505050506040513d601f19601f8201168201806040525081019061072b91906110a9565b61076a576040517f08c379a000000000000000000000000000000000000000000000000000000000815260040161076190611122565b60405180910390fd5b5050565b600260009054906101000a900473ffffffffffffffffffffffffffffffffffffffff1681565b600160009054906101000a900473ffffffffffffffffffffffffffffffffffffffff1681565b6003600082815260200190815260200160002060000160009054906101000a900473ffffffffffffffffffffffffffffffffffffffff1673ffffffffffffffffffffffffffffffffffffffff163373ffffffffffffffffffffffffffffffffffffffff161461085e576040517f08c379a00000000000000000000000000000000000000000000000000000000081526004016108559061118e565b60405180910390fd5b6003600082815260200190815260200160002060030160009054906101000a900460ff16156108c2576040517f08c379a00000000000000000000000000000000000000000000000000000000081526004016108b990610dc2565b60405180910390fd5b60016003600083815260200190815260200160002060030160006101000a81548160ff02191690831515021790555050565b60008054906101000a900473ffffffffffffffffffffffffffffffffffffffff1681565b600061092683836000610a16565b905092915050565b606060008267ffffffffffffffff81111561094c5761094b6111ae565b5b6040519080825280601f01601f19166020018201604052801561097e5781602001600182028036833780820191505090505b50905060005b83811015610a0a5785858261099991906111dd565b815181106109aa576109a9611211565b5b602001015160f81c60f81b8282815181106109c8576109c7611211565b5b60200101907effffffffffffffffffffffffffffffffffffffffffffffffffffffffffffff1916908160001a9053508080610a0290611240565b915050610984565b50809150509392505050565b600081471015610a5f5747826040517fcf479181000000000000000000000000000000000000000000000000000000008152600401610a56929190611288565b60405180910390fd5b763d602d80600a3d3981f3363d3d373d3d3d363d730000008460601b60e81c176000526e5af43d82803e903d91602b57fd5bf38460781b17602052826037600984f59050600073ffffffffffffffffffffffffffffffffffffffff168173ffffffffffffffffffffffffffffffffffffffff1603610b09576040517fb06ebf3d00000000000000000000000000000000000000000000000000000000815260040160405180910390fd5b9392505050565b600080fd5b6000819050919050565b610b2881610b15565b8114610b3357600080fd5b50565b600081359050610b4581610b1f565b92915050565b600060208284031215610b6157610b60610b10565b5b6000610b6f84828501610b36565b91505092915050565b600073ffffffffffffffffffffffffffffffffffffffff82169050919050565b6000610ba382610b78565b9050919050565b610bb381610b98565b82525050565b6000819050919050565b610bcc81610bb9565b82525050565b60008115159050919050565b610be781610bd2565b82525050565b6000608082019050610c026000830187610baa565b610c0f6020830186610bc3565b610c1c6040830185610bc3565b610c296060830184610bde565b95945050505050565b610c3b81610bb9565b8114610c4657600080fd5b50565b600081359050610c5881610c32565b92915050565b600080600060608486031215610c7757610c76610b10565b5b6000610c8586828701610b36565b9350506020610c9686828701610c49565b9250506040610ca786828701610c49565b9150509250925092565b6000602082019050610cc66000830184610baa565b92915050565b600060208284031215610ce257610ce1610b10565b5b6000610cf084828501610c49565b91505092915050565b600082825260208201905092915050565b7f4f6e6c79206f776e65722063616e20637265617465207061796d656e74730000600082015250565b6000610d40601e83610cf9565b9150610d4b82610d0a565b602082019050919050565b60006020820190508181036000830152610d6f81610d33565b9050919050565b7f5061796d656e7420616c72656164792070726f63657373656400000000000000600082015250565b6000610dac601983610cf9565b9150610db782610d76565b602082019050919050565b60006020820190508181036000830152610ddb81610d9f565b9050919050565b610deb81610b15565b82525050565b6000604082019050610e066000830185610baa565b610e136020830184610de2565b9392505050565b600081519050919050565b600081905092915050565b60005b83811015610e4e578082015181840152602081019050610e33565b60008484015250505050565b6000610e6582610e1a565b610e6f8185610e25565b9350610e7f818560208601610e30565b80840191505092915050565b6000610e978284610e5a565b915081905092915050565b7f4e487b7100000000000000000000000000000000000000000000000000000000600052601160045260246000fd5b6000610edc82610bb9565b9150610ee783610bb9565b9250828203905081811115610eff57610efe610ea2565b5b92915050565b600081519050919050565b6000601f19601f8301169050919050565b6000610f2c82610f05565b610f368185610cf9565b9350610f46818560208601610e30565b610f4f81610f10565b840191505092915050565b60006020820190508181036000830152610f748184610f21565b905092915050565b7f50726f787920696e697469616c697a6174696f6e206661696c65640000000000600082015250565b6000610fb2601b83610cf9565b9150610fbd82610f7c565b602082019050919050565b60006020820190508181036000830152610fe181610fa5565b9050919050565b7f4f6e6c79206f776e65722063616e207769746864726177000000000000000000600082015250565b600061101e601783610cf9565b915061102982610fe8565b602082019050919050565b6000602082019050818103600083015261104d81611011565b9050919050565b60006040820190506110696000830185610baa565b6110766020830184610bc3565b9392505050565b61108681610bd2565b811461109157600080fd5b50565b6000815190506110a38161107d565b92915050565b6000602082840312156110bf576110be610b10565b5b60006110cd84828501611094565b91505092915050565b7f5769746864726177616c206661696c6564000000000000000000000000000000600082015250565b600061110c601183610cf9565b9150611117826110d6565b602082019050919050565b6000602082019050818103600083015261113b816110ff565b9050919050565b7f4f6e6c792070726f78792063616e206d61726b2061732070726f636573736564600082015250565b6000611178602083610cf9565b915061118382611142565b602082019050919050565b600060208201905081810360008301526111a78161116b565b9050919050565b7f4e487b7100000000000000000000000000000000000000000000000000000000600052604160045260246000fd5b60006111e882610bb9565b91506111f383610bb9565b925082820190508082111561120b5761120a610ea2565b5b92915050565b7f4e487b7100000000000000000000000000000000000000000000000000000000600052603260045260246000fd5b600061124b82610bb9565b91507fffffffffffffffffffffffffffffffffffffffffffffffffffffffffffffffff820361127d5761127c610ea2565b5b600182019050919050565b600060408201905061129d6000830185610bc3565b6112aa6020830184610bc3565b939250505056fea2646970667358221220bb844d101ed6515507b7849db8b661ba627b9cc17d88fc010136a910e2b0129564736f6c63430008140033",
					"opcodes": "PUSH1 0x80 PUSH1 0x40 MSTORE CALLVALUE DUP1 ISZERO PUSH3 0x11 JUMPI PUSH1 0x0 DUP1 REVERT JUMPDEST POP PUSH1 0x40 MLOAD PUSH3 0x14A9 CODESIZE SUB DUP1 PUSH3 0x14A9 DUP4 CODECOPY DUP2 DUP2 ADD PUSH1 0x40 MSTORE DUP2 ADD SWAP1 PUSH3 0x37 SWAP2 SWAP1 PUSH3 0x16B JUMP JUMPDEST CALLER PUSH1 0x0 DUP1 PUSH2 0x100 EXP DUP2 SLOAD DUP2 PUSH20 0xFFFFFFFFFFFFFFFFFFFFFFFFFFFFFFFFFFFFFFFF MUL NOT AND SWAP1 DUP4 PUSH20 0xFFFFFFFFFFFFFFFFFFFFFFFFFFFFFFFFFFFFFFFF AND MUL OR SWAP1 SSTORE POP DUP2 PUSH1 0x1 PUSH1 0x0 PUSH2 0x100 EXP DUP2 SLOAD DUP2 PUSH20 0xFFFFFFFFFFFFFFFFFFFFFFFFFFFFFFFFFFFFFFFF MUL NOT AND SWAP1 DUP4 PUSH20 0xFFFFFFFFFFFFFFFFFFFFFFFFFFFFFFFFFFFFFFFF AND MUL OR SWAP1 SSTORE POP DUP1 PUSH1 0x2 PUSH1 0x0 PUSH2 0x100 EXP DUP2 SLOAD DUP2 PUSH20 0xFFFFFFFFFFFFFFFFFFFFFFFFFFFFFFFFFFFFFFFF MUL NOT AND SWAP1 DUP4 PUSH20 0xFFFFFFFFFFFFFFFFFFFFFFFFFFFFFFFFFFFFFFFF AND MUL OR SWAP1 SSTORE POP POP POP PUSH3 0x1B2 JUMP JUMPDEST PUSH1 0x0 DUP1 REVERT JUMPDEST PUSH1 0x0 PUSH20 0xFFFFFFFFFFFFFFFFFFFFFFFFFFFFFFFFFFFFFFFF DUP3 AND SWAP1 POP SWAP2 SWAP1 POP JUMP JUMPDEST PUSH1 0x0 PUSH3 0x133 DUP3 PUSH3 0x106 JUMP JUMPDEST SWAP1 POP SWAP2 SWAP1 POP JUMP JUMPDEST PUSH3 0x145 DUP2 PUSH3 0x126 JUMP JUMPDEST DUP2 EQ PUSH3 0x151 JUMPI PUSH1 0x0 DUP1 REVERT JUMPDEST POP JUMP JUMPDEST PUSH1 0x0 DUP2 MLOAD SWAP1 POP PUSH3 0x165 DUP2 PUSH3 0x13A JUMP JUMPDEST SWAP3 SWAP2 POP POP JUMP JUMPDEST PUSH1 0x0 DUP1 PUSH1 0x40 DUP4 DUP6 SUB SLT ISZERO PUSH3 0x185 JUMPI PUSH3 0x184 PUSH3 0x101 JUMP JUMPDEST JUMPDEST PUSH1 0x0 PUSH3 0x195 DUP6 DUP3 DUP7 ADD PUSH3 0x154 JUMP JUMPDEST SWAP3 POP POP PUSH1 0x20 PUSH3 0x1A8 DUP6 DUP3 DUP7 ADD PUSH3 0x154 JUMP JUMPDEST SWAP2 POP POP SWAP3 POP SWAP3 SWAP1 POP JUMP JUMPDEST PUSH2 0x12E7 DUP1 PUSH3 0x1C2 PUSH1 0x0 CODECOPY PUSH1 0x0 RETURN INVALID PUSH1 0x80 PUSH1 0x40 MSTORE CALLVALUE DUP1 ISZERO PUSH2 0x10 JUMPI PUSH1 0x0 DUP1 REVERT JUMPDEST POP PUSH1 0x4 CALLDATASIZE LT PUSH2 0x7D JUMPI PUSH1 0x0 CALLDATALOAD PUSH1 0xE0 SHR DUP1 PUSH4 0x5C60DA1B GT PUSH2 0x5B JUMPI DUP1 PUSH4 0x5C60DA1B EQ PUSH2 0x101 JUMPI DUP1 PUSH4 0x61150923 EQ PUSH2 0x11F JUMPI DUP1 PUSH4 0x67074C21 EQ PUSH2 0x13D JUMPI DUP1 PUSH4 0x8DA5CB5B EQ PUSH2 0x159 JUMPI PUSH2 0x7D JUMP JUMPDEST DUP1 PUSH4 0x716326D EQ PUSH2 0x82 JUMPI DUP1 PUSH4 0x2DC90865 EQ PUSH2 0xB5 JUMPI DUP1 PUSH4 0x3EA521EF EQ PUSH2 0xE5 JUMPI JUMPDEST PUSH1 0x0 DUP1 REVERT JUMPDEST PUSH2 0x9C PUSH1 0x4 DUP1 CALLDATASIZE SUB DUP2 ADD SWAP1 PUSH2 0x97 SWAP2 SWAP1 PUSH2 0xB4B JUMP JUMPDEST PUSH2 0x177 JUMP JUMPDEST PUSH1 0x40 MLOAD PUSH2 0xAC SWAP5 SWAP4 SWAP3 SWAP2 SWAP1 PUSH2 0xBED JUMP JUMPDEST PUSH1 0x40 MLOAD DUP1 SWAP2 SUB SWAP1 RETURN JUMPDEST PUSH2 0xCF PUSH1 0x4 DUP1 CALLDATASIZE SUB DUP2 ADD SWAP1 PUSH2 0xCA SWAP2 SWAP1 PUSH2 0xC5E JUMP JUMPDEST PUSH2 0x1D4 JUMP JUMPDEST PUSH1 0x40 MLOAD PUSH2 0xDC SWAP2 SWAP1 PUSH2 0xCB1 JUMP JUMPDEST PUSH1 0x40 MLOAD DUP1 SWAP2 SUB SWAP1 RETURN JUMPDEST PUSH2 0xFF PUSH1 0x4 DUP1 CALLDATASIZE SUB DUP2 ADD SWAP1 PUSH2 0xFA SWAP2 SWAP1 PUSH2 0xCCC JUMP JUMPDEST PUSH2 0x5D8 JUMP JUMPDEST STOP JUMPDEST PUSH2 0x109 PUSH2 0x76E JUMP JUMPDEST PUSH1 0x40 MLOAD PUSH2 0x116 SWAP2 SWAP1 PUSH2 0xCB1 JUMP JUMPDEST PUSH1 0x40 MLOAD DUP1 SWAP2 SUB SWAP1 RETURN JUMPDEST PUSH2 0x127 PUSH2 0x794 JUMP JUMPDEST PUSH1 0x40 MLOAD PUSH2 0x134 SWAP2 SWAP1 PUSH2 0xCB1 JUMP JUMPDEST PUSH1 0x40 MLOAD DUP1 SWAP2 SUB SWAP1 RETURN JUMPDEST PUSH2 0x157 PUSH1 0x4 DUP1 CALLDATASIZE SUB DUP2 ADD SWAP1 PUSH2 0x152 SWAP2 SWAP1 PUSH2 0xB4B JUMP JUMPDEST PUSH2 0x7BA JUMP JUMPDEST STOP JUMPDEST PUSH2 0x161 PUSH2 0x8F4 JUMP JUMPDEST PUSH1 0x40 MLOAD PUSH2 0x16E SWAP2 SWAP1 PUSH2 0xCB1 JUMP JUMPDEST PUSH1 0x40 MLOAD DUP1 SWAP2 SUB SWAP1 RETURN JUMPDEST PUSH1 0x3 PUSH1 0x20 MSTORE DUP1 PUSH1 0x0 MSTORE PUSH1 0x40 PUSH1 0x0 KECCAK256 PUSH1 0x0 SWAP2 POP SWAP1 POP DUP1 PUSH1 0x0 ADD PUSH1 0x0 SWAP1 SLOAD SWAP1 PUSH2 0x100 EXP SWAP1 DIV PUSH20 0xFFFFFFFFFFFFFFFFFFFFFFFFFFFFFFFFFFFFFFFF AND SWAP1 DUP1 PUSH1 0x1 ADD SLOAD SWAP1 DUP1 PUSH1 0x2 ADD SLOAD SWAP1 DUP1 PUSH1 0x3 ADD PUSH1 0x0 SWAP1 SLOAD SWAP1 PUSH2 0x100 EXP SWAP1 DIV PUSH1 0xFF AND SWAP1 POP DUP5 JUMP JUMPDEST PUSH1 0x0 DUP1 PUSH1 0x0 SWAP1 SLOAD SWAP1 PUSH2 0x100 EXP SWAP1 DIV PUSH20 0xFFFFFFFFFFFFFFFFFFFFFFFFFFFFFFFFFFFFFFFF AND PUSH20 0xFFFFFFFFFFFFFFFFFFFFFFFFFFFFFFFFFFFFFFFF AND CALLER PUSH20 0xFFFFFFFFFFFFFFFFFFFFFFFFFFFFFFFFFFFFFFFF AND EQ PUSH2 0x265 JUMPI PUSH1 0x40 MLOAD PUSH32 0x8C379A000000000000000000000000000000000000000000000000000000000 DUP2 MSTORE PUSH1 0x4 ADD PUSH2 0x25C SWAP1 PUSH2 0xD56 JUMP JUMPDEST PUSH1 0x40 MLOAD DUP1 SWAP2 SUB SWAP1 REVERT JUMPDEST PUSH1 0x3 PUSH1 0x0 DUP6 DUP2 MSTORE PUSH1 0x20 ADD SWAP1 DUP2 MSTORE PUSH1 0x20 ADD PUSH1 0x0 KECCAK256 PUSH1 0x3 ADD PUSH1 0x0 SWAP1 SLOAD SWAP1 PUSH2 0x100 EXP SWAP1 DIV PUSH1 0xFF AND ISZERO PUSH2 0x2C9 JUMPI PUSH1 0x40 MLOAD PUSH32 0x8C379A000000000000000000000000000000000000000000000000000000000 DUP2 MSTORE PUSH1 0x4 ADD PUSH2 0x2C0 SWAP1 PUSH2 0xDC2 JUMP JUMPDEST PUSH1 0x40 MLOAD DUP1 SWAP2 SUB SWAP1 REVERT JUMPDEST PUSH1 0x0 PUSH2 0x2F7 PUSH1 0x2 PUSH1 0x0 SWAP1 SLOAD SWAP1 PUSH2 0x100 EXP SWAP1 DIV PUSH20 0xFFFFFFFFFFFFFFFFFFFFFFFFFFFFFFFFFFFFFFFF AND DUP7 PUSH2 0x918 JUMP JUMPDEST SWAP1 POP PUSH1 0x40 MLOAD DUP1 PUSH1 0x80 ADD PUSH1 0x40 MSTORE DUP1 DUP3 PUSH20 0xFFFFFFFFFFFFFFFFFFFFFFFFFFFFFFFFFFFFFFFF AND DUP2 MSTORE PUSH1 0x20 ADD DUP6 DUP2 MSTORE PUSH1 0x20 ADD DUP5 DUP2 MSTORE PUSH1 0x20 ADD PUSH1 0x0 ISZERO ISZERO DUP2 MSTORE POP PUSH1 0x3 PUSH1 0x0 DUP8 DUP2 MSTORE PUSH1 0x20 ADD SWAP1 DUP2 MSTORE PUSH1 0x20 ADD PUSH1 0x0 KECCAK256 PUSH1 0x0 DUP3 ADD MLOAD DUP2 PUSH1 0x0 ADD PUSH1 0x0 PUSH2 0x100 EXP DUP2 SLOAD DUP2 PUSH20 0xFFFFFFFFFFFFFFFFFFFFFFFFFFFFFFFFFFFFFFFF MUL NOT AND SWAP1 DUP4 PUSH20 0xFFFFFFFFFFFFFFFFFFFFFFFFFFFFFFFFFFFFFFFF AND MUL OR SWAP1 SSTORE POP PUSH1 0x20 DUP3 ADD MLOAD DUP2 PUSH1 0x1 ADD SSTORE PUSH1 0x40 DUP3 ADD MLOAD DUP2 PUSH1 0x2 ADD SSTORE PUSH1 0x60 DUP3 ADD MLOAD DUP2 PUSH1 0x3 ADD PUSH1 0x0 PUSH2 0x100 EXP DUP2 SLOAD DUP2 PUSH1 0xFF MUL NOT AND SWAP1 DUP4 ISZERO ISZERO MUL OR SWAP1 SSTORE POP SWAP1 POP POP PUSH1 0x0 DUP1 DUP3 PUSH20 0xFFFFFFFFFFFFFFFFFFFFFFFFFFFFFFFFFFFFFFFF AND PUSH1 0x1 PUSH1 0x0 SWAP1 SLOAD SWAP1 PUSH2 0x100 EXP SWAP1 DIV PUSH20 0xFFFFFFFFFFFFFFFFFFFFFFFFFFFFFFFFFFFFFFFF AND DUP9 PUSH1 0x40 MLOAD PUSH1 0x24 ADD PUSH2 0x413 SWAP3 SWAP2 SWAP1 PUSH2 0xDF1 JUMP JUMPDEST PUSH1 0x40 MLOAD PUSH1 0x20 DUP2 DUP4 SUB SUB DUP2 MSTORE SWAP1 PUSH1 0x40 MSTORE PUSH32 0xBE13F47C00000000000000000000000000000000000000000000000000000000 PUSH28 0xFFFFFFFFFFFFFFFFFFFFFFFFFFFFFFFFFFFFFFFFFFFFFFFFFFFFFFFF NOT AND PUSH1 0x20 DUP3 ADD DUP1 MLOAD PUSH28 0xFFFFFFFFFFFFFFFFFFFFFFFFFFFFFFFFFFFFFFFFFFFFFFFFFFFFFFFF DUP4 DUP2 DUP4 AND OR DUP4 MSTORE POP POP POP POP PUSH1 0x40 MLOAD PUSH2 0x49D SWAP2 SWAP1 PUSH2 0xE8B JUMP JUMPDEST PUSH1 0x0 PUSH1 0x40 MLOAD DUP1 DUP4 SUB DUP2 PUSH1 0x0 DUP7 GAS CALL SWAP2 POP POP RETURNDATASIZE DUP1 PUSH1 0x0 DUP2 EQ PUSH2 0x4DA JUMPI PUSH1 0x40 MLOAD SWAP2 POP PUSH1 0x1F NOT PUSH1 0x3F RETURNDATASIZE ADD AND DUP3 ADD PUSH1 0x40 MSTORE RETURNDATASIZE DUP3 MSTORE RETURNDATASIZE PUSH1 0x0 PUSH1 0x20 DUP5 ADD RETURNDATACOPY PUSH2 0x4DF JUMP JUMPDEST PUSH1 0x60 SWAP2 POP JUMPDEST POP SWAP2 POP SWAP2 POP DUP2 PUSH2 0x587 JUMPI PUSH1 0x44 DUP2 MLOAD GT ISZERO PUSH2 0x54C JUMPI PUSH1 0x0 PUSH2 0x50D DUP3 PUSH1 0x4 DUP1 DUP6 MLOAD PUSH2 0x508 SWAP2 SWAP1 PUSH2 0xED1 JUMP JUMPDEST PUSH2 0x92E JUMP JUMPDEST SWAP1 POP DUP1 PUSH1 0x40 MLOAD PUSH32 0x8C379A000000000000000000000000000000000000000000000000000000000 DUP2 MSTORE PUSH1 0x4 ADD PUSH2 0x543 SWAP2 SWAP1 PUSH2 0xF5A JUMP JUMPDEST PUSH1 0x40 MLOAD DUP1 SWAP2 SUB SWAP1 REVERT JUMPDEST PUSH1 0x40 MLOAD PUSH32 0x8C379A000000000000000000000000000000000000000000000000000000000 DUP2 MSTORE PUSH1 0x4 ADD PUSH2 0x57E SWAP1 PUSH2 0xFC8 JUMP JUMPDEST PUSH1 0x40 MLOAD DUP1 SWAP2 SUB SWAP1 REVERT JUMPDEST DUP7 DUP4 PUSH20 0xFFFFFFFFFFFFFFFFFFFFFFFFFFFFFFFFFFFFFFFF AND PUSH32 0xCFAAB0D6675A72A93C114F48DD85ADD1076BE0C88545968759EF034DA7AD146F PUSH1 0x40 MLOAD PUSH1 0x40 MLOAD DUP1 SWAP2 SUB SWAP1 LOG3 DUP3 SWAP4 POP POP POP POP SWAP4 SWAP3 POP POP POP JUMP JUMPDEST PUSH1 0x0 DUP1 SLOAD SWAP1 PUSH2 0x100 EXP SWAP1 DIV PUSH20 0xFFFFFFFFFFFFFFFFFFFFFFFFFFFFFFFFFFFFFFFF AND PUSH20 0xFFFFFFFFFFFFFFFFFFFFFFFFFFFFFFFFFFFFFFFF AND CALLER PUSH20 0xFFFFFFFFFFFFFFFFFFFFFFFFFFFFFFFFFFFFFFFF AND EQ PUSH2 0x666 JUMPI PUSH1 0x40 MLOAD PUSH32 0x8C379A000000000000000000000000000000000000000000000000000000000 DUP2 MSTORE PUSH1 0x4 ADD PUSH2 0x65D SWAP1 PUSH2 0x1034 JUMP JUMPDEST PUSH1 0x40 MLOAD DUP1 SWAP2 SUB SWAP1 REVERT JUMPDEST PUSH1 0x0 PUSH1 0x1 PUSH1 0x0 SWAP1 SLOAD SWAP1 PUSH2 0x100 EXP SWAP1 DIV PUSH20 0xFFFFFFFFFFFFFFFFFFFFFFFFFFFFFFFFFFFFFFFF AND SWAP1 POP DUP1 PUSH20 0xFFFFFFFFFFFFFFFFFFFFFFFFFFFFFFFFFFFFFFFF AND PUSH4 0xA9059CBB PUSH1 0x0 DUP1 SLOAD SWAP1 PUSH2 0x100 EXP SWAP1 DIV PUSH20 0xFFFFFFFFFFFFFFFFFFFFFFFFFFFFFFFFFFFFFFFF AND DUP5 PUSH1 0x40 MLOAD DUP4 PUSH4 0xFFFFFFFF AND PUSH1 0xE0 SHL DUP2 MSTORE PUSH1 0x4 ADD PUSH2 0x6E8 SWAP3 SWAP2 SWAP1 PUSH2 0x1054 JUMP JUMPDEST PUSH1 0x20 PUSH1 0x40 MLOAD DUP1 DUP4 SUB DUP2 PUSH1 0x0 DUP8 GAS CALL ISZERO DUP1 ISZERO PUSH2 0x707 JUMPI RETURNDATASIZE PUSH1 0x0 DUP1 RETURNDATACOPY RETURNDATASIZE PUSH1 0x0 REVERT JUMPDEST POP POP POP POP PUSH1 0x40 MLOAD RETURNDATASIZE PUSH1 0x1F NOT PUSH1 0x1F DUP3 ADD AND DUP3 ADD DUP1 PUSH1 0x40 MSTORE POP DUP2 ADD SWAP1 PUSH2 0x72B SWAP2 SWAP1 PUSH2 0x10A9 JUMP JUMPDEST PUSH2 0x76A JUMPI PUSH1 0x40 MLOAD PUSH32 0x8C379A000000000000000000000000000000000000000000000000000000000 DUP2 MSTORE PUSH1 0x4 ADD PUSH2 0x761 SWAP1 PUSH2 0x1122 JUMP JUMPDEST PUSH1 0x40 MLOAD DUP1 SWAP2 SUB SWAP1 REVERT JUMPDEST POP POP JUMP JUMPDEST PUSH1 0x2 PUSH1 0x0 SWAP1 SLOAD SWAP1 PUSH2 0x100 EXP SWAP1 DIV PUSH20 0xFFFFFFFFFFFFFFFFFFFFFFFFFFFFFFFFFFFFFFFF AND DUP2 JUMP JUMPDEST PUSH1 0x1 PUSH1 0x0 SWAP1 SLOAD SWAP1 PUSH2 0x100 EXP SWAP1 DIV PUSH20 0xFFFFFFFFFFFFFFFFFFFFFFFFFFFFFFFFFFFFFFFF AND DUP2 JUMP JUMPDEST PUSH1 0x3 PUSH1 0x0 DUP3 DUP2 MSTORE PUSH1 0x20 ADD SWAP1 DUP2 MSTORE PUSH1 0x20 ADD PUSH1 0x0 KECCAK256 PUSH1 0x0 ADD PUSH1 0x0 SWAP1 SLOAD SWAP1 PUSH2 0x100 EXP SWAP1 DIV PUSH20 0xFFFFFFFFFFFFFFFFFFFFFFFFFFFFFFFFFFFFFFFF AND PUSH20 0xFFFFFFFFFFFFFFFFFFFFFFFFFFFFFFFFFFFFFFFF AND CALLER PUSH20 0xFFFFFFFFFFFFFFFFFFFFFFFFFFFFFFFFFFFFFFFF AND EQ PUSH2 0x85E JUMPI PUSH1 0x40 MLOAD PUSH32 0x8C379A000000000000000000000000000000000000000000000000000000000 DUP2 MSTORE PUSH1 0x4 ADD PUSH2 0x855 SWAP1 PUSH2 0x118E JUMP JUMPDEST PUSH1 0x40 MLOAD DUP1 SWAP2 SUB SWAP1 REVERT JUMPDEST PUSH1 0x3 PUSH1 0x0 DUP3 DUP2 MSTORE PUSH1 0x20 ADD SWAP1 DUP2 MSTORE PUSH1 0x20 ADD PUSH1 0x0 KECCAK256 PUSH1 0x3 ADD PUSH1 0x0 SWAP1 SLOAD SWAP1 PUSH2 0x100 EXP SWAP1 DIV PUSH1 0xFF AND ISZERO PUSH2 0x8C2 JUMPI PUSH1 0x40 MLOAD PUSH32 0x8C379A000000000000000000000000000000000000000000000000000000000 DUP2 MSTORE PUSH1 0x4 ADD PUSH2 0x8B9 SWAP1 PUSH2 0xDC2 JUMP JUMPDEST PUSH1 0x40 MLOAD DUP1 SWAP2 SUB SWAP1 REVERT JUMPDEST PUSH1 0x1 PUSH1 0x3 PUSH1 0x0 DUP4 DUP2 MSTORE PUSH1 0x20 ADD SWAP1 DUP2 MSTORE PUSH1 0x20 ADD PUSH1 0x0 KECCAK256 PUSH1 0x3 ADD PUSH1 0x0 PUSH2 0x100 EXP DUP2 SLOAD DUP2 PUSH1 0xFF MUL NOT AND SWAP1 DUP4 ISZERO ISZERO MUL OR SWAP1 SSTORE POP POP JUMP JUMPDEST PUSH1 0x0 DUP1 SLOAD SWAP1 PUSH2 0x100 EXP SWAP1 DIV PUSH20 0xFFFFFFFFFFFFFFFFFFFFFFFFFFFFFFFFFFFFFFFF AND DUP2 JUMP JUMPDEST PUSH1 0x0 PUSH2 0x926 DUP4 DUP4 PUSH1 0x0 PUSH2 0xA16 JUMP JUMPDEST SWAP1 POP SWAP3 SWAP2 POP POP JUMP JUMPDEST PUSH1 0x60 PUSH1 0x0 DUP3 PUSH8 0xFFFFFFFFFFFFFFFF DUP2 GT ISZERO PUSH2 0x94C JUMPI PUSH2 0x94B PUSH2 0x11AE JUMP JUMPDEST JUMPDEST PUSH1 0x40 MLOAD SWAP1 DUP1 DUP3 MSTORE DUP1 PUSH1 0x1F ADD PUSH1 0x1F NOT AND PUSH1 0x20 ADD DUP3 ADD PUSH1 0x40 MSTORE DUP1 ISZERO PUSH2 0x97E JUMPI DUP2 PUSH1 0x20 ADD PUSH1 0x1 DUP3 MUL DUP1 CALLDATASIZE DUP4 CALLDATACOPY DUP1 DUP3 ADD SWAP2 POP POP SWAP1 POP JUMPDEST POP SWAP1 POP PUSH1 0x0 JUMPDEST DUP4 DUP2 LT ISZERO PUSH2 0xA0A JUMPI DUP6 DUP6 DUP3 PUSH2 0x999 SWAP2 SWAP1 PUSH2 0x11DD JUMP JUMPDEST DUP2 MLOAD DUP2 LT PUSH2 0x9AA JUMPI PUSH2 0x9A9 PUSH2 0x1211 JUMP JUMPDEST JUMPDEST PUSH1 0x20 ADD ADD MLOAD PUSH1 0xF8 SHR PUSH1 0xF8 SHL DUP3 DUP3 DUP2 MLOAD DUP2 LT PUSH2 0x9C8 JUMPI PUSH2 0x9C7 PUSH2 0x1211 JUMP JUMPDEST JUMPDEST PUSH1 0x20 ADD ADD SWAP1 PUSH31 0xFFFFFFFFFFFFFFFFFFFFFFFFFFFFFFFFFFFFFFFFFFFFFFFFFFFFFFFFFFFFFF NOT AND SWAP1 DUP2 PUSH1 0x0 BYTE SWAP1 MSTORE8 POP DUP1 DUP1 PUSH2 0xA02 SWAP1 PUSH2 0x1240 JUMP JUMPDEST SWAP2 POP POP PUSH2 0x984 JUMP JUMPDEST POP DUP1 SWAP2 POP POP SWAP4 SWAP3 POP POP POP JUMP JUMPDEST PUSH1 0x0 DUP2 SELFBALANCE LT ISZERO PUSH2 0xA5F JUMPI SELFBALANCE DUP3 PUSH1 0x40 MLOAD PUSH32 0xCF47918100000000000000000000000000000000000000000000000000000000 DUP2 MSTORE PUSH1 0x4 ADD PUSH2 0xA56 SWAP3 SWAP2 SWAP1 PUSH2 0x1288 JUMP JUMPDEST PUSH1 0x40 MLOAD DUP1 SWAP2 SUB SWAP1 REVERT JUMPDEST PUSH23 0x3D602D80600A3D3981F3363D3D373D3D3D363D73000000 DUP5 PUSH1 0x60 SHL PUSH1 0xE8 SHR OR PUSH1 0x0 MSTORE PUSH15 0x5AF43D82803E903D91602B57FD5BF3 DUP5 PUSH1 0x78 SHL OR PUSH1 0x20 MSTORE DUP3 PUSH1 0x37 PUSH1 0x9 DUP5 CREATE2 SWAP1 POP PUSH1 0x0 PUSH20 0xFFFFFFFFFFFFFFFFFFFFFFFFFFFFFFFFFFFFFFFF AND DUP2 PUSH20 0xFFFFFFFFFFFFFFFFFFFFFFFFFFFFFFFFFFFFFFFF AND SUB PUSH2 0xB09 JUMPI PUSH1 0x40 MLOAD PUSH32 0xB06EBF3D00000000000000000000000000000000000000000000000000000000 DUP2 MSTORE PUSH1 0x4 ADD PUSH1 0x40 MLOAD DUP1 SWAP2 SUB SWAP1 REVERT JUMPDEST SWAP4 SWAP3 POP POP POP JUMP JUMPDEST PUSH1 0x0 DUP1 REVERT JUMPDEST PUSH1 0x0 DUP2 SWAP1 POP SWAP2 SWAP1 POP JUMP JUMPDEST PUSH2 0xB28 DUP2 PUSH2 0xB15 JUMP JUMPDEST DUP2 EQ PUSH2 0xB33 JUMPI PUSH1 0x0 DUP1 REVERT JUMPDEST POP JUMP JUMPDEST PUSH1 0x0 DUP2 CALLDATALOAD SWAP1 POP PUSH2 0xB45 DUP2 PUSH2 0xB1F JUMP JUMPDEST SWAP3 SWAP2 POP POP JUMP JUMPDEST PUSH1 0x0 PUSH1 0x20 DUP3 DUP5 SUB SLT ISZERO PUSH2 0xB61 JUMPI PUSH2 0xB60 PUSH2 0xB10 JUMP JUMPDEST JUMPDEST PUSH1 0x0 PUSH2 0xB6F DUP5 DUP3 DUP6 ADD PUSH2 0xB36 JUMP JUMPDEST SWAP2 POP POP SWAP3 SWAP2 POP POP JUMP JUMPDEST PUSH1 0x0 PUSH20 0xFFFFFFFFFFFFFFFFFFFFFFFFFFFFFFFFFFFFFFFF DUP3 AND SWAP1 POP SWAP2 SWAP1 POP JUMP JUMPDEST PUSH1 0x0 PUSH2 0xBA3 DUP3 PUSH2 0xB78 JUMP JUMPDEST SWAP1 POP SWAP2 SWAP1 POP JUMP JUMPDEST PUSH2 0xBB3 DUP2 PUSH2 0xB98 JUMP JUMPDEST DUP3 MSTORE POP POP JUMP JUMPDEST PUSH1 0x0 DUP2 SWAP1 POP SWAP2 SWAP1 POP JUMP JUMPDEST PUSH2 0xBCC DUP2 PUSH2 0xBB9 JUMP JUMPDEST DUP3 MSTORE POP POP JUMP JUMPDEST PUSH1 0x0 DUP2 ISZERO ISZERO SWAP1 POP SWAP2 SWAP1 POP JUMP JUMPDEST PUSH2 0xBE7 DUP2 PUSH2 0xBD2 JUMP JUMPDEST DUP3 MSTORE POP POP JUMP JUMPDEST PUSH1 0x0 PUSH1 0x80 DUP3 ADD SWAP1 POP PUSH2 0xC02 PUSH1 0x0 DUP4 ADD DUP8 PUSH2 0xBAA JUMP JUMPDEST PUSH2 0xC0F PUSH1 0x20 DUP4 ADD DUP7 PUSH2 0xBC3 JUMP JUMPDEST PUSH2 0xC1C PUSH1 0x40 DUP4 ADD DUP6 PUSH2 0xBC3 JUMP JUMPDEST PUSH2 0xC29 PUSH1 0x60 DUP4 ADD DUP5 PUSH2 0xBDE JUMP JUMPDEST SWAP6 SWAP5 POP POP POP POP POP JUMP JUMPDEST PUSH2 0xC3B DUP2 PUSH2 0xBB9 JUMP JUMPDEST DUP2 EQ PUSH2 0xC46 JUMPI PUSH1 0x0 DUP1 REVERT JUMPDEST POP JUMP JUMPDEST PUSH1 0x0 DUP2 CALLDATALOAD SWAP1 POP PUSH2 0xC58 DUP2 PUSH2 0xC32 JUMP JUMPDEST SWAP3 SWAP2 POP POP JUMP JUMPDEST PUSH1 0x0 DUP1 PUSH1 0x0 PUSH1 0x60 DUP5 DUP7 SUB SLT ISZERO PUSH2 0xC77 JUMPI PUSH2 0xC76 PUSH2 0xB10 JUMP JUMPDEST JUMPDEST PUSH1 0x0 PUSH2 0xC85 DUP7 DUP3 DUP8 ADD PUSH2 0xB36 JUMP JUMPDEST SWAP4 POP POP PUSH1 0x20 PUSH2 0xC96 DUP7 DUP3 DUP8 ADD PUSH2 0xC49 JUMP JUMPDEST SWAP3 POP POP PUSH1 0x40 PUSH2 0xCA7 DUP7 DUP3 DUP8 ADD PUSH2 0xC49 JUMP JUMPDEST SWAP2 POP POP SWAP3 POP SWAP3 POP SWAP3 JUMP JUMPDEST PUSH1 0x0 PUSH1 0x20 DUP3 ADD SWAP1 POP PUSH2 0xCC6 PUSH1 0x0 DUP4 ADD DUP5 PUSH2 0xBAA JUMP JUMPDEST SWAP3 SWAP2 POP POP JUMP JUMPDEST PUSH1 0x0 PUSH1 0x20 DUP3 DUP5 SUB SLT ISZERO PUSH2 0xCE2 JUMPI PUSH2 0xCE1 PUSH2 0xB10 JUMP JUMPDEST JUMPDEST PUSH1 0x0 PUSH2 0xCF0 DUP5 DUP3 DUP6 ADD PUSH2 0xC49 JUMP JUMPDEST SWAP2 POP POP SWAP3 SWAP2 POP POP JUMP JUMPDEST PUSH1 0x0 DUP3 DUP3 MSTORE PUSH1 0x20 DUP3 ADD SWAP1 POP SWAP3 SWAP2 POP POP JUMP JUMPDEST PUSH32 0x4F6E6C79206F776E65722063616E20637265617465207061796D656E74730000 PUSH1 0x0 DUP3 ADD MSTORE POP JUMP JUMPDEST PUSH1 0x0 PUSH2 0xD40 PUSH1 0x1E DUP4 PUSH2 0xCF9 JUMP JUMPDEST SWAP2 POP PUSH2 0xD4B DUP3 PUSH2 0xD0A JUMP JUMPDEST PUSH1 0x20 DUP3 ADD SWAP1 POP SWAP2 SWAP1 POP JUMP JUMPDEST PUSH1 0x0 PUSH1 0x20 DUP3 ADD SWAP1 POP DUP2 DUP2 SUB PUSH1 0x0 DUP4 ADD MSTORE PUSH2 0xD6F DUP2 PUSH2 0xD33 JUMP JUMPDEST SWAP1 POP SWAP2 SWAP1 POP JUMP JUMPDEST PUSH32 0x5061796D656E7420616C72656164792070726F63657373656400000000000000 PUSH1 0x0 DUP3 ADD MSTORE POP JUMP JUMPDEST PUSH1 0x0 PUSH2 0xDAC PUSH1 0x19 DUP4 PUSH2 0xCF9 JUMP JUMPDEST SWAP2 POP PUSH2 0xDB7 DUP3 PUSH2 0xD76 JUMP JUMPDEST PUSH1 0x20 DUP3 ADD SWAP1 POP SWAP2 SWAP1 POP JUMP JUMPDEST PUSH1 0x0 PUSH1 0x20 DUP3 ADD SWAP1 POP DUP2 DUP2 SUB PUSH1 0x0 DUP4 ADD MSTORE PUSH2 0xDDB DUP2 PUSH2 0xD9F JUMP JUMPDEST SWAP1 POP SWAP2 SWAP1 POP JUMP JUMPDEST PUSH2 0xDEB DUP2 PUSH2 0xB15 JUMP JUMPDEST DUP3 MSTORE POP POP JUMP JUMPDEST PUSH1 0x0 PUSH1 0x40 DUP3 ADD SWAP1 POP PUSH2 0xE06 PUSH1 0x0 DUP4 ADD DUP6 PUSH2 0xBAA JUMP JUMPDEST PUSH2 0xE13 PUSH1 0x20 DUP4 ADD DUP5 PUSH2 0xDE2 JUMP JUMPDEST SWAP4 SWAP3 POP POP POP JUMP JUMPDEST PUSH1 0x0 DUP2 MLOAD SWAP1 POP SWAP2 SWAP1 POP JUMP JUMPDEST PUSH1 0x0 DUP2 SWAP1 POP SWAP3 SWAP2 POP POP JUMP JUMPDEST PUSH1 0x0 JUMPDEST DUP4 DUP2 LT ISZERO PUSH2 0xE4E JUMPI DUP1 DUP3 ADD MLOAD DUP2 DUP5 ADD MSTORE PUSH1 0x20 DUP2 ADD SWAP1 POP PUSH2 0xE33 JUMP JUMPDEST PUSH1 0x0 DUP5 DUP5 ADD MSTORE POP POP POP POP JUMP JUMPDEST PUSH1 0x0 PUSH2 0xE65 DUP3 PUSH2 0xE1A JUMP JUMPDEST PUSH2 0xE6F DUP2 DUP6 PUSH2 0xE25 JUMP JUMPDEST SWAP4 POP PUSH2 0xE7F DUP2 DUP6 PUSH1 0x20 DUP7 ADD PUSH2 0xE30 JUMP JUMPDEST DUP1 DUP5 ADD SWAP2 POP POP SWAP3 SWAP2 POP POP JUMP JUMPDEST PUSH1 0x0 PUSH2 0xE97 DUP3 DUP5 PUSH2 0xE5A JUMP JUMPDEST SWAP2 POP DUP2 SWAP1 POP SWAP3 SWAP2 POP POP JUMP JUMPDEST PUSH32 0x4E487B7100000000000000000000000000000000000000000000000000000000 PUSH1 0x0 MSTORE PUSH1 0x11 PUSH1 0x4 MSTORE PUSH1 0x24 PUSH1 0x0 REVERT JUMPDEST PUSH1 0x0 PUSH2 0xEDC DUP3 PUSH2 0xBB9 JUMP JUMPDEST SWAP2 POP PUSH2 0xEE7 DUP4 PUSH2 0xBB9 JUMP JUMPDEST SWAP3 POP DUP3 DUP3 SUB SWAP1 POP DUP2 DUP2 GT ISZERO PUSH2 0xEFF JUMPI PUSH2 0xEFE PUSH2 0xEA2 JUMP JUMPDEST JUMPDEST SWAP3 SWAP2 POP POP JUMP JUMPDEST PUSH1 0x0 DUP2 MLOAD SWAP1 POP SWAP2 SWAP1 POP JUMP JUMPDEST PUSH1 0x0 PUSH1 0x1F NOT PUSH1 0x1F DUP4 ADD AND SWAP1 POP SWAP2 SWAP1 POP JUMP JUMPDEST PUSH1 0x0 PUSH2 0xF2C DUP3 PUSH2 0xF05 JUMP JUMPDEST PUSH2 0xF36 DUP2 DUP6 PUSH2 0xCF9 JUMP JUMPDEST SWAP4 POP PUSH2 0xF46 DUP2 DUP6 PUSH1 0x20 DUP7 ADD PUSH2 0xE30 JUMP JUMPDEST PUSH2 0xF4F DUP2 PUSH2 0xF10 JUMP JUMPDEST DUP5 ADD SWAP2 POP POP SWAP3 SWAP2 POP POP JUMP JUMPDEST PUSH1 0x0 PUSH1 0x20 DUP3 ADD SWAP1 POP DUP2 DUP2 SUB PUSH1 0x0 DUP4 ADD MSTORE PUSH2 0xF74 DUP2 DUP5 PUSH2 0xF21 JUMP JUMPDEST SWAP1 POP SWAP3 SWAP2 POP POP JUMP JUMPDEST PUSH32 0x50726F787920696E697469616C697A6174696F6E206661696C65640000000000 PUSH1 0x0 DUP3 ADD MSTORE POP JUMP JUMPDEST PUSH1 0x0 PUSH2 0xFB2 PUSH1 0x1B DUP4 PUSH2 0xCF9 JUMP JUMPDEST SWAP2 POP PUSH2 0xFBD DUP3 PUSH2 0xF7C JUMP JUMPDEST PUSH1 0x20 DUP3 ADD SWAP1 POP SWAP2 SWAP1 POP JUMP JUMPDEST PUSH1 0x0 PUSH1 0x20 DUP3 ADD SWAP1 POP DUP2 DUP2 SUB PUSH1 0x0 DUP4 ADD MSTORE PUSH2 0xFE1 DUP2 PUSH2 0xFA5 JUMP JUMPDEST SWAP1 POP SWAP2 SWAP1 POP JUMP JUMPDEST PUSH32 0x4F6E6C79206F776E65722063616E207769746864726177000000000000000000 PUSH1 0x0 DUP3 ADD MSTORE POP JUMP JUMPDEST PUSH1 0x0 PUSH2 0x101E PUSH1 0x17 DUP4 PUSH2 0xCF9 JUMP JUMPDEST SWAP2 POP PUSH2 0x1029 DUP3 PUSH2 0xFE8 JUMP JUMPDEST PUSH1 0x20 DUP3 ADD SWAP1 POP SWAP2 SWAP1 POP JUMP JUMPDEST PUSH1 0x0 PUSH1 0x20 DUP3 ADD SWAP1 POP DUP2 DUP2 SUB PUSH1 0x0 DUP4 ADD MSTORE PUSH2 0x104D DUP2 PUSH2 0x1011 JUMP JUMPDEST SWAP1 POP SWAP2 SWAP1 POP JUMP JUMPDEST PUSH1 0x0 PUSH1 0x40 DUP3 ADD SWAP1 POP PUSH2 0x1069 PUSH1 0x0 DUP4 ADD DUP6 PUSH2 0xBAA JUMP JUMPDEST PUSH2 0x1076 PUSH1 0x20 DUP4 ADD DUP5 PUSH2 0xBC3 JUMP JUMPDEST SWAP4 SWAP3 POP POP POP JUMP JUMPDEST PUSH2 0x1086 DUP2 PUSH2 0xBD2 JUMP JUMPDEST DUP2 EQ PUSH2 0x1091 JUMPI PUSH1 0x0 DUP1 REVERT JUMPDEST POP JUMP JUMPDEST PUSH1 0x0 DUP2 MLOAD SWAP1 POP PUSH2 0x10A3 DUP2 PUSH2 0x107D JUMP JUMPDEST SWAP3 SWAP2 POP POP JUMP JUMPDEST PUSH1 0x0 PUSH1 0x20 DUP3 DUP5 SUB SLT ISZERO PUSH2 0x10BF JUMPI PUSH2 0x10BE PUSH2 0xB10 JUMP JUMPDEST JUMPDEST PUSH1 0x0 PUSH2 0x10CD DUP5 DUP3 DUP6 ADD PUSH2 0x1094 JUMP JUMPDEST SWAP2 POP POP SWAP3 SWAP2 POP POP JUMP JUMPDEST PUSH32 0x5769746864726177616C206661696C6564000000000000000000000000000000 PUSH1 0x0 DUP3 ADD MSTORE POP JUMP JUMPDEST PUSH1 0x0 PUSH2 0x110C PUSH1 0x11 DUP4 PUSH2 0xCF9 JUMP JUMPDEST SWAP2 POP PUSH2 0x1117 DUP3 PUSH2 0x10D6 JUMP JUMPDEST PUSH1 0x20 DUP3 ADD SWAP1 POP SWAP2 SWAP1 POP JUMP JUMPDEST PUSH1 0x0 PUSH1 0x20 DUP3 ADD SWAP1 POP DUP2 DUP2 SUB PUSH1 0x0 DUP4 ADD MSTORE PUSH2 0x113B DUP2 PUSH2 0x10FF JUMP JUMPDEST SWAP1 POP SWAP2 SWAP1 POP JUMP JUMPDEST PUSH32 0x4F6E6C792070726F78792063616E206D61726B2061732070726F636573736564 PUSH1 0x0 DUP3 ADD MSTORE POP JUMP JUMPDEST PUSH1 0x0 PUSH2 0x1178 PUSH1 0x20 DUP4 PUSH2 0xCF9 JUMP JUMPDEST SWAP2 POP PUSH2 0x1183 DUP3 PUSH2 0x1142 JUMP JUMPDEST PUSH1 0x20 DUP3 ADD SWAP1 POP SWAP2 SWAP1 POP JUMP JUMPDEST PUSH1 0x0 PUSH1 0x20 DUP3 ADD SWAP1 POP DUP2 DUP2 SUB PUSH1 0x0 DUP4 ADD MSTORE PUSH2 0x11A7 DUP2 PUSH2 0x116B JUMP JUMPDEST SWAP1 POP SWAP2 SWAP1 POP JUMP JUMPDEST PUSH32 0x4E487B7100000000000000000000000000000000000000000000000000000000 PUSH1 0x0 MSTORE PUSH1 0x41 PUSH1 0x4 MSTORE PUSH1 0x24 PUSH1 0x0 REVERT JUMPDEST PUSH1 0x0 PUSH2 0x11E8 DUP3 PUSH2 0xBB9 JUMP JUMPDEST SWAP2 POP PUSH2 0x11F3 DUP4 PUSH2 0xBB9 JUMP JUMPDEST SWAP3 POP DUP3 DUP3 ADD SWAP1 POP DUP1 DUP3 GT ISZERO PUSH2 0x120B JUMPI PUSH2 0x120A PUSH2 0xEA2 JUMP JUMPDEST JUMPDEST SWAP3 SWAP2 POP POP JUMP JUMPDEST PUSH32 0x4E487B7100000000000000000000000000000000000000000000000000000000 PUSH1 0x0 MSTORE PUSH1 0x32 PUSH1 0x4 MSTORE PUSH1 0x24 PUSH1 0x0 REVERT JUMPDEST PUSH1 0x0 PUSH2 0x124B DUP3 PUSH2 0xBB9 JUMP JUMPDEST SWAP2 POP PUSH32 0xFFFFFFFFFFFFFFFFFFFFFFFFFFFFFFFFFFFFFFFFFFFFFFFFFFFFFFFFFFFFFFFF DUP3 SUB PUSH2 0x127D JUMPI PUSH2 0x127C PUSH2 0xEA2 JUMP JUMPDEST JUMPDEST PUSH1 0x1 DUP3 ADD SWAP1 POP SWAP2 SWAP1 POP JUMP JUMPDEST PUSH1 0x0 PUSH1 0x40 DUP3 ADD SWAP1 POP PUSH2 0x129D PUSH1 0x0 DUP4 ADD DUP6 PUSH2 0xBC3 JUMP JUMPDEST PUSH2 0x12AA PUSH1 0x20 DUP4 ADD DUP5 PUSH2 0xBC3 JUMP JUMPDEST SWAP4 SWAP3 POP POP POP JUMP INVALID LOG2 PUSH5 0x6970667358 0x22 SLT KECCAK256 0xBB DUP5 0x4D LT 0x1E 0xD6 MLOAD SSTORE SMOD 0xB7 DUP5 SWAP14 0xB8 0xB6 PUSH2 0xBA62 PUSH28 0x9CC17D88FC010136A910E2B0129564736F6C63430008140033000000 "
				},
				"gasEstimates": {
					"creation": {
						"codeDepositCost": "967800",
						"executionCost": "infinite",
						"totalCost": "infinite"
					},
					"external": {
						"createPaymentProxy(bytes32,uint256,uint256)": "infinite",
						"implementation()": "1214",
						"markPaymentProcessed(bytes32)": "23295",
						"owner()": "1277",
						"payments(bytes32)": "infinite",
						"usdtContract()": "1236",
						"withdrawUSDT(uint256)": "infinite"
					},
					"internal": {
						"slice(bytes memory,uint256,uint256)": "infinite"
					}
				},
				"methodIdentifiers": {
					"createPaymentProxy(bytes32,uint256,uint256)": "2dc90865",
					"implementation()": "5c60da1b",
					"markPaymentProcessed(bytes32)": "67074c21",
					"owner()": "8da5cb5b",
					"payments(bytes32)": "0716326d",
					"usdtContract()": "61150923",
					"withdrawUSDT(uint256)": "3ea521ef"
				}
			},
			"storageLayout": {
				"storage": [
					{
						"astId": 603,
						"contract": "PaymentProcessor.sol:PaymentProcessor",
						"label": "owner",
						"offset": 0,
						"slot": "0",
						"type": "t_address"
					},
					{
						"astId": 605,
						"contract": "PaymentProcessor.sol:PaymentProcessor",
						"label": "usdtContract",
						"offset": 0,
						"slot": "1",
						"type": "t_address"
					},
					{
						"astId": 607,
						"contract": "PaymentProcessor.sol:PaymentProcessor",
						"label": "implementation",
						"offset": 0,
						"slot": "2",
						"type": "t_address"
					},
					{
						"astId": 612,
						"contract": "PaymentProcessor.sol:PaymentProcessor",
						"label": "payments",
						"offset": 0,
						"slot": "3",
						"type": "t_mapping(t_bytes32,t_struct(Payment)621_storage)"
					}
				],
				"types": {
					"t_address": {
						"encoding": "inplace",
						"label": "address",
						"numberOfBytes": "20"
					},
					"t_bool": {
						"encoding": "inplace",
						"label": "bool",
						"numberOfBytes": "1"
					},
					"t_bytes32": {
						"encoding": "inplace",
						"label": "bytes32",
						"numberOfBytes": "32"
					},
					"t_mapping(t_bytes32,t_struct(Payment)621_storage)": {
						"encoding": "mapping",
						"key": "t_bytes32",
						"label": "mapping(bytes32 => struct PaymentProcessor.Payment)",
						"numberOfBytes": "32",
						"value": "t_struct(Payment)621_storage"
					},
					"t_struct(Payment)621_storage": {
						"encoding": "inplace",
						"label": "struct PaymentProcessor.Payment",
						"members": [
							{
								"astId": 614,
								"contract": "PaymentProcessor.sol:PaymentProcessor",
								"label": "proxyAddress",
								"offset": 0,
								"slot": "0",
								"type": "t_address"
							},
							{
								"astId": 616,
								"contract": "PaymentProcessor.sol:PaymentProcessor",
								"label": "payAmount",
								"offset": 0,
								"slot": "1",
								"type": "t_uint256"
							},
							{
								"astId": 618,
								"contract": "PaymentProcessor.sol:PaymentProcessor",
								"label": "expirationDate",
								"offset": 0,
								"slot": "2",
								"type": "t_uint256"
							},
							{
								"astId": 620,
								"contract": "PaymentProcessor.sol:PaymentProcessor",
								"label": "isProcessed",
								"offset": 0,
								"slot": "3",
								"type": "t_bool"
							}
						],
						"numberOfBytes": "128"
					},
					"t_uint256": {
						"encoding": "inplace",
						"label": "uint256",
						"numberOfBytes": "32"
					}
				}
			},
			"userdoc": {
				"kind": "user",
				"methods": {},
				"version": 1
			}
		}
	}
}